{
  "address": "0x5FbDB2315678afecb367f032d93F642f64180aa3",
  "abi": [
    {
      "inputs": [
        {
          "internalType": "address",
          "name": "_feeAccount",
          "type": "address"
        },
        {
          "internalType": "uint256",
          "name": "_feePercent",
          "type": "uint256"
        }
      ],
      "stateMutability": "nonpayable",
      "type": "constructor"
    },
    {
      "inputs": [],
      "name": "Marketplace__NotOwner",
      "type": "error"
    },
    {
      "anonymous": false,
      "inputs": [
        {
          "indexed": false,
          "internalType": "uint256",
          "name": "id",
          "type": "uint256"
        },
        {
          "indexed": false,
          "internalType": "address",
          "name": "seller",
          "type": "address"
        },
        {
          "indexed": false,
          "internalType": "address",
          "name": "buyer",
          "type": "address"
        },
        {
          "indexed": false,
          "internalType": "string",
          "name": "item",
          "type": "string"
        },
        {
          "indexed": false,
          "internalType": "uint256",
          "name": "qtty_bought",
          "type": "uint256"
        },
        {
          "indexed": false,
          "internalType": "uint256",
          "name": "price",
          "type": "uint256"
        },
        {
          "indexed": false,
          "internalType": "uint256",
          "name": "timestamp",
          "type": "uint256"
        }
      ],
      "name": "CancelFilledOrder",
      "type": "event"
    },
    {
      "anonymous": false,
      "inputs": [
        {
          "indexed": false,
          "internalType": "uint256",
          "name": "id",
          "type": "uint256"
        },
        {
          "indexed": false,
          "internalType": "address",
          "name": "seller",
          "type": "address"
        },
        {
          "indexed": false,
          "internalType": "string",
          "name": "item",
          "type": "string"
        },
        {
          "indexed": false,
          "internalType": "uint256",
          "name": "qtty_to_sell",
          "type": "uint256"
        },
        {
          "indexed": false,
          "internalType": "uint256",
          "name": "price",
          "type": "uint256"
        },
        {
          "indexed": false,
          "internalType": "uint256",
          "name": "timestamp",
          "type": "uint256"
        }
      ],
      "name": "CancelOpenOrder",
      "type": "event"
    },
    {
      "anonymous": false,
      "inputs": [
        {
          "indexed": false,
          "internalType": "address",
          "name": "user",
          "type": "address"
        },
        {
          "indexed": false,
          "internalType": "uint256",
          "name": "amount",
          "type": "uint256"
        },
        {
          "indexed": false,
          "internalType": "uint256",
          "name": "bal",
          "type": "uint256"
        }
      ],
      "name": "Deposit",
      "type": "event"
    },
    {
      "anonymous": false,
      "inputs": [
        {
          "indexed": false,
          "internalType": "uint256",
          "name": "id",
          "type": "uint256"
        },
        {
          "indexed": false,
          "internalType": "address",
          "name": "seller",
          "type": "address"
        },
        {
          "indexed": false,
          "internalType": "string",
          "name": "item",
          "type": "string"
        },
        {
          "indexed": false,
          "internalType": "uint256",
          "name": "qtty_to_sell",
          "type": "uint256"
        },
        {
          "indexed": false,
          "internalType": "uint256",
          "name": "price",
          "type": "uint256"
        },
        {
          "indexed": false,
          "internalType": "uint256",
          "name": "timestamp",
          "type": "uint256"
        }
      ],
      "name": "OrderCreated",
      "type": "event"
    },
    {
      "anonymous": false,
      "inputs": [
        {
          "indexed": false,
          "internalType": "uint256",
          "name": "id",
          "type": "uint256"
        },
        {
          "indexed": false,
          "internalType": "address",
          "name": "seller",
          "type": "address"
        },
        {
          "indexed": false,
          "internalType": "address",
          "name": "buyer",
          "type": "address"
        },
        {
          "indexed": false,
          "internalType": "string",
          "name": "item",
          "type": "string"
        },
        {
          "indexed": false,
          "internalType": "uint256",
          "name": "qtty_bought",
          "type": "uint256"
        },
        {
          "indexed": false,
          "internalType": "uint256",
          "name": "price",
          "type": "uint256"
        },
        {
          "indexed": false,
          "internalType": "uint256",
          "name": "timestamp",
          "type": "uint256"
        }
      ],
      "name": "OrderDelivered",
      "type": "event"
    },
    {
      "anonymous": false,
      "inputs": [
        {
          "indexed": false,
          "internalType": "uint256",
          "name": "id",
          "type": "uint256"
        },
        {
          "indexed": false,
          "internalType": "address",
          "name": "seller",
          "type": "address"
        },
        {
          "indexed": false,
          "internalType": "address",
          "name": "buyer",
          "type": "address"
        },
        {
          "indexed": false,
          "internalType": "string",
          "name": "item",
          "type": "string"
        },
        {
          "indexed": false,
          "internalType": "uint256",
          "name": "qtty_bought",
          "type": "uint256"
        },
        {
          "indexed": false,
          "internalType": "uint256",
          "name": "price",
          "type": "uint256"
        },
        {
          "indexed": false,
          "internalType": "uint256",
          "name": "timestamp",
          "type": "uint256"
        }
      ],
      "name": "OrderFilled",
      "type": "event"
    },
    {
      "anonymous": false,
      "inputs": [
        {
          "indexed": false,
          "internalType": "address",
          "name": "user",
          "type": "address"
        },
        {
          "indexed": false,
          "internalType": "uint256",
          "name": "amount",
          "type": "uint256"
        },
        {
          "indexed": false,
          "internalType": "uint256",
          "name": "bal",
          "type": "uint256"
        }
      ],
      "name": "Withdraw",
      "type": "event"
    },
    {
      "inputs": [
        {
          "internalType": "uint256",
          "name": "",
          "type": "uint256"
        }
      ],
      "name": "Buyers",
      "outputs": [
        {
          "internalType": "address",
          "name": "",
          "type": "address"
        }
      ],
      "stateMutability": "view",
      "type": "function"
    },
    {
      "inputs": [
        {
          "internalType": "uint256",
          "name": "_id",
          "type": "uint256"
        }
      ],
      "name": "OrderReceived",
      "outputs": [],
      "stateMutability": "nonpayable",
      "type": "function"
    },
    {
      "inputs": [
        {
          "internalType": "string",
          "name": "_item",
          "type": "string"
        }
      ],
      "name": "addAllowedItems",
      "outputs": [],
      "stateMutability": "nonpayable",
      "type": "function"
    },
    {
      "inputs": [
        {
          "internalType": "uint256",
          "name": "",
          "type": "uint256"
        }
      ],
      "name": "allowedItems",
      "outputs": [
        {
          "internalType": "string",
          "name": "",
          "type": "string"
        }
      ],
      "stateMutability": "view",
      "type": "function"
    },
    {
      "inputs": [
        {
          "internalType": "uint256",
          "name": "_id",
          "type": "uint256"
        }
      ],
      "name": "cancelFilledOrder",
      "outputs": [],
      "stateMutability": "nonpayable",
      "type": "function"
    },
    {
      "inputs": [
        {
          "internalType": "uint256",
          "name": "_id",
          "type": "uint256"
        }
      ],
      "name": "cancelOpenOrder",
      "outputs": [],
      "stateMutability": "nonpayable",
      "type": "function"
    },
    {
      "inputs": [],
      "name": "depositEther",
      "outputs": [],
      "stateMutability": "payable",
      "type": "function"
    },
    {
      "inputs": [],
      "name": "feeAccount",
      "outputs": [
        {
          "internalType": "address",
          "name": "",
          "type": "address"
        }
      ],
      "stateMutability": "view",
      "type": "function"
    },
    {
      "inputs": [],
      "name": "feePercent",
      "outputs": [
        {
          "internalType": "uint256",
          "name": "",
          "type": "uint256"
        }
      ],
      "stateMutability": "view",
      "type": "function"
    },
    {
      "inputs": [
        {
          "internalType": "uint256",
          "name": "_id",
          "type": "uint256"
        },
        {
          "internalType": "uint256",
          "name": "_quantity",
          "type": "uint256"
        }
      ],
      "name": "fillOrder",
      "outputs": [],
      "stateMutability": "nonpayable",
      "type": "function"
    },
    {
      "inputs": [
        {
          "internalType": "uint256",
          "name": "",
          "type": "uint256"
        }
      ],
      "name": "filledAmount",
      "outputs": [
        {
          "internalType": "uint256",
          "name": "",
          "type": "uint256"
        }
      ],
      "stateMutability": "view",
      "type": "function"
    },
    {
      "inputs": [
        {
          "internalType": "uint256",
          "name": "",
          "type": "uint256"
        }
      ],
      "name": "filledQuantity",
      "outputs": [
        {
          "internalType": "uint256",
          "name": "",
          "type": "uint256"
        }
      ],
      "stateMutability": "view",
      "type": "function"
    },
    {
      "inputs": [
        {
          "internalType": "address",
          "name": "",
          "type": "address"
        }
      ],
      "name": "getBal",
      "outputs": [
        {
          "internalType": "uint256",
          "name": "",
          "type": "uint256"
        }
      ],
      "stateMutability": "view",
      "type": "function"
    },
    {
      "inputs": [
        {
          "internalType": "address",
          "name": "",
          "type": "address"
        },
        {
          "internalType": "string",
          "name": "",
          "type": "string"
        }
      ],
      "name": "goods",
      "outputs": [
        {
          "internalType": "uint256",
          "name": "",
          "type": "uint256"
        }
      ],
      "stateMutability": "view",
      "type": "function"
    },
    {
      "inputs": [],
      "name": "i_owner",
      "outputs": [
        {
          "internalType": "address",
          "name": "",
          "type": "address"
        }
      ],
      "stateMutability": "view",
      "type": "function"
    },
    {
      "inputs": [],
      "name": "item",
      "outputs": [
        {
          "internalType": "string",
          "name": "",
          "type": "string"
        }
      ],
      "stateMutability": "view",
      "type": "function"
    },
    {
      "inputs": [
        {
          "internalType": "string",
          "name": "_item",
          "type": "string"
        }
      ],
      "name": "itemIsAllowed",
      "outputs": [
        {
          "internalType": "bool",
          "name": "",
          "type": "bool"
        }
      ],
      "stateMutability": "view",
      "type": "function"
    },
    {
      "inputs": [
        {
          "internalType": "string",
          "name": "_item",
          "type": "string"
        },
        {
          "internalType": "uint256",
          "name": "_quantity",
          "type": "uint256"
        },
        {
          "internalType": "uint256",
          "name": "_price",
          "type": "uint256"
        }
      ],
      "name": "makeOrder",
      "outputs": [],
      "stateMutability": "nonpayable",
      "type": "function"
    },
    {
      "inputs": [],
      "name": "myBalance",
      "outputs": [
        {
          "internalType": "uint256",
          "name": "",
          "type": "uint256"
        }
      ],
      "stateMutability": "view",
      "type": "function"
    },
    {
      "inputs": [],
      "name": "open_order",
      "outputs": [
        {
          "components": [
            {
              "internalType": "uint256",
              "name": "id",
              "type": "uint256"
            },
            {
              "internalType": "address",
              "name": "seller",
              "type": "address"
            },
            {
              "internalType": "string",
              "name": "item",
              "type": "string"
            },
            {
              "internalType": "uint256",
              "name": "qtty_to_sell",
              "type": "uint256"
            },
            {
              "internalType": "uint256",
              "name": "price",
              "type": "uint256"
            },
            {
              "internalType": "uint256",
              "name": "timestamp",
              "type": "uint256"
            }
          ],
          "internalType": "struct Marketplace._order[]",
          "name": "",
          "type": "tuple[]"
        }
      ],
      "stateMutability": "view",
      "type": "function"
    },
    {
      "inputs": [
        {
          "internalType": "uint256",
          "name": "",
          "type": "uint256"
        }
      ],
      "name": "orderCancelled",
      "outputs": [
        {
          "internalType": "bool",
          "name": "",
          "type": "bool"
        }
      ],
      "stateMutability": "view",
      "type": "function"
    },
    {
      "inputs": [],
      "name": "orderCount",
      "outputs": [
        {
          "internalType": "uint256",
          "name": "",
          "type": "uint256"
        }
      ],
      "stateMutability": "view",
      "type": "function"
    },
    {
      "inputs": [
        {
          "internalType": "uint256",
          "name": "",
          "type": "uint256"
        }
      ],
      "name": "orderCreated",
      "outputs": [
        {
          "internalType": "bool",
          "name": "",
          "type": "bool"
        }
      ],
      "stateMutability": "view",
      "type": "function"
    },
    {
      "inputs": [
        {
          "internalType": "uint256",
          "name": "",
          "type": "uint256"
        }
      ],
      "name": "orderDelivered",
      "outputs": [
        {
          "internalType": "bool",
          "name": "",
          "type": "bool"
        }
      ],
      "stateMutability": "view",
      "type": "function"
    },
    {
      "inputs": [
        {
          "internalType": "uint256",
          "name": "",
          "type": "uint256"
        }
      ],
      "name": "orderFilled",
      "outputs": [
        {
          "internalType": "bool",
          "name": "",
          "type": "bool"
        }
      ],
      "stateMutability": "view",
      "type": "function"
    },
    {
      "inputs": [
        {
          "internalType": "uint256",
          "name": "",
          "type": "uint256"
        }
      ],
      "name": "orderStatus",
      "outputs": [
        {
          "internalType": "enum Marketplace.ORDER_STATE",
          "name": "",
          "type": "uint8"
        }
      ],
      "stateMutability": "view",
      "type": "function"
    },
    {
      "inputs": [
        {
          "internalType": "uint256",
          "name": "",
          "type": "uint256"
        }
      ],
      "name": "orders",
      "outputs": [
        {
          "internalType": "uint256",
          "name": "id",
          "type": "uint256"
        },
        {
          "internalType": "address",
          "name": "seller",
          "type": "address"
        },
        {
          "internalType": "string",
          "name": "item",
          "type": "string"
        },
        {
          "internalType": "uint256",
          "name": "qtty_to_sell",
          "type": "uint256"
        },
        {
          "internalType": "uint256",
          "name": "price",
          "type": "uint256"
        },
        {
          "internalType": "uint256",
          "name": "timestamp",
          "type": "uint256"
        }
      ],
      "stateMutability": "view",
      "type": "function"
    },
    {
      "inputs": [
        {
          "internalType": "uint256",
          "name": "_amount",
          "type": "uint256"
        }
      ],
      "name": "withdrawEther",
      "outputs": [],
      "stateMutability": "nonpayable",
      "type": "function"
    }
  ],
  "transactionHash": "0x26cb089efafbecda19d077fcccba9f56581640ab09c25aa67aced434a5d9792c",
  "args": [
    "0xf39Fd6e51aad88F6F4ce6aB8827279cffFb92266",
    5
  ],
  "numDeployments": 1,
  "solcInputHash": "c7ab568476449b7da8dec5aade9d1ff0",
  "bytecode": "0x60e06040523480156200001157600080fd5b50604051620038b6380380620038b683398181016040528101906200003791906200015a565b8173ffffffffffffffffffffffffffffffffffffffff1660808173ffffffffffffffffffffffffffffffffffffffff1660601b815250508060a081815250503373ffffffffffffffffffffffffffffffffffffffff1660c08173ffffffffffffffffffffffffffffffffffffffff1660601b815250505050620001a1565b600080fd5b600073ffffffffffffffffffffffffffffffffffffffff82169050919050565b6000620000e782620000ba565b9050919050565b620000f981620000da565b81146200010557600080fd5b50565b6000815190506200011981620000ee565b92915050565b6000819050919050565b62000134816200011f565b81146200014057600080fd5b50565b600081519050620001548162000129565b92915050565b60008060408385031215620001745762000173620000b5565b5b6000620001848582860162000108565b9250506020620001978582860162000143565b9150509250929050565b60805160601c60a05160c05160601c6136bc620001fa60003960008181611b91015261210e015260008181610f960152818161234d01526124f6015260008181610f720152818161252f015261259901526136bc6000f3fe6080604052600436106101b75760003560e01c8063a443df94116100ec578063cb3968b51161008a578063dbdea44c11610064578063dbdea44c1461064e578063e742a1821461068b578063e9c18966146106c8578063f2a4a82e14610705576101b7565b8063cb3968b5146105d1578063d55a7bcb146105fa578063dba6335f14610623576101b7565b8063bff49450116100c6578063bff4945014610503578063c37dfc5b14610540578063c9116b6914610569578063c94c2b8d14610594576101b7565b8063a443df941461045b578063a85c38ef14610498578063a8e87b8a146104da576101b7565b80634a93e0da116101595780637fd6f15c116101335780637fd6f15c146103c0578063812538e1146103eb57806398ea5fca146104145780639b40ae7f1461041e576101b7565b80634a93e0da1461031b5780634f1658731461035857806365e17c9d14610395576101b7565b80632e6e91aa116101955780632e6e91aa1461024d5780632fa780851461028a578063364315dd146102c75780633bed33ce146102f2576101b7565b80630da1e350146101bc5780631df9ccaa146101e55780632453ffa814610222575b600080fd5b3480156101c857600080fd5b506101e360048036038101906101de919061297f565b610730565b005b3480156101f157600080fd5b5061020c6004803603810190610207919061297f565b610a27565b60405161021991906129bb565b60405180910390f35b34801561022e57600080fd5b50610237610a3f565b60405161024491906129bb565b60405180910390f35b34801561025957600080fd5b50610274600480360381019061026f919061297f565b610a45565b6040516102819190612a6f565b60405180910390f35b34801561029657600080fd5b506102b160048036038101906102ac9190612aef565b610af1565b6040516102be91906129bb565b60405180910390f35b3480156102d357600080fd5b506102dc610b09565b6040516102e99190612ccf565b60405180910390f35b3480156102fe57600080fd5b506103196004803603810190610314919061297f565b610cd1565b005b34801561032757600080fd5b50610342600480360381019061033d919061297f565b610ed2565b60405161034f9190612d0c565b60405180910390f35b34801561036457600080fd5b5061037f600480360381019061037a9190612e5c565b610ef2565b60405161038c9190612d0c565b60405180910390f35b3480156103a157600080fd5b506103aa610f70565b6040516103b79190612eb4565b60405180910390f35b3480156103cc57600080fd5b506103d5610f94565b6040516103e291906129bb565b60405180910390f35b3480156103f757600080fd5b50610412600480360381019061040d919061297f565b610fb8565b005b61041c611276565b005b34801561042a57600080fd5b5061044560048036038101906104409190612ecf565b611380565b60405161045291906129bb565b60405180910390f35b34801561046757600080fd5b50610482600480360381019061047d919061297f565b6113bb565b60405161048f9190612eb4565b60405180910390f35b3480156104a457600080fd5b506104bf60048036038101906104ba919061297f565b6113ee565b6040516104d196959493929190612f2b565b60405180910390f35b3480156104e657600080fd5b5061050160048036038101906104fc9190612f93565b6114d2565b005b34801561050f57600080fd5b5061052a6004803603810190610525919061297f565b61173c565b6040516105379190613079565b60405180910390f35b34801561054c57600080fd5b5061056760048036038101906105629190613094565b61175c565b005b34801561057557600080fd5b5061057e611b28565b60405161058b91906129bb565b60405180910390f35b3480156105a057600080fd5b506105bb60048036038101906105b6919061297f565b611b6f565b6040516105c89190612d0c565b60405180910390f35b3480156105dd57600080fd5b506105f860048036038101906105f39190612e5c565b611b8f565b005b34801561060657600080fd5b50610621600480360381019061061c919061297f565b611c53565b005b34801561062f57600080fd5b5061063861210c565b6040516106459190612eb4565b60405180910390f35b34801561065a57600080fd5b506106756004803603810190610670919061297f565b612130565b60405161068291906129bb565b60405180910390f35b34801561069757600080fd5b506106b260048036038101906106ad919061297f565b612148565b6040516106bf9190612d0c565b60405180910390f35b3480156106d457600080fd5b506106ef60048036038101906106ea919061297f565b612168565b6040516106fc9190612d0c565b60405180910390f35b34801561071157600080fd5b5061071a612188565b6040516107279190612a6f565b60405180910390f35b6000600c600083815260200190815260200160002060009054906101000a900473ffffffffffffffffffffffffffffffffffffffff1690506000600560008481526020019081526020016000206040518060c0016040529081600082015481526020016001820160009054906101000a900473ffffffffffffffffffffffffffffffffffffffff1673ffffffffffffffffffffffffffffffffffffffff1673ffffffffffffffffffffffffffffffffffffffff1681526020016002820180546107f890613103565b80601f016020809104026020016040519081016040528092919081815260200182805461082490613103565b80156108715780601f1061084657610100808354040283529160200191610871565b820191906000526020600020905b81548152906001019060200180831161085457829003601f168201915b5050505050815260200160038201548152602001600482015481526020016005820154815250509050600160028111156108ae576108ad613002565b5b6007600085815260200190815260200160002060009054906101000a900460ff1660028111156108e1576108e0613002565b5b146108eb57600080fd5b8173ffffffffffffffffffffffffffffffffffffffff163373ffffffffffffffffffffffffffffffffffffffff1614610959576040517f08c379a000000000000000000000000000000000000000000000000000000000815260040161095090613181565b60405180910390fd5b6000600d60008581526020019081526020016000205490506000600e600086815260200190815260200160002054905061099585858385612216565b60026007600087815260200190815260200160002060006101000a81548160ff021916908360028111156109cc576109cb613002565b5b02179055507f7dfc2e96d4e9bfa63e26f3d2a2c37873074e8ad79d74ea908e97c8ae7d796a9785846020015186866040015185886080015142604051610a1897969594939291906131a1565b60405180910390a15050505050565b600d6020528060005260406000206000915090505481565b60065481565b60018181548110610a5557600080fd5b906000526020600020016000915090508054610a7090613103565b80601f0160208091040260200160405190810160405280929190818152602001828054610a9c90613103565b8015610ae95780601f10610abe57610100808354040283529160200191610ae9565b820191906000526020600020905b815481529060010190602001808311610acc57829003601f168201915b505050505081565b60046020528060005260406000206000915090505481565b6060806000600190505b6006548111610cc95760006002811115610b3057610b2f613002565b5b6007600083815260200190815260200160002060009054906101000a900460ff166002811115610b6357610b62613002565b5b1415610cb657600560008281526020019081526020016000206040518060c0016040529081600082015481526020016001820160009054906101000a900473ffffffffffffffffffffffffffffffffffffffff1673ffffffffffffffffffffffffffffffffffffffff1673ffffffffffffffffffffffffffffffffffffffff168152602001600282018054610bf790613103565b80601f0160208091040260200160405190810160405280929190818152602001828054610c2390613103565b8015610c705780601f10610c4557610100808354040283529160200191610c70565b820191906000526020600020905b815481529060010190602001808311610c5357829003601f168201915b505050505081526020016003820154815260200160048201548152602001600582015481525050828281518110610caa57610ca9613217565b5b60200260200101819052505b8080610cc190613275565b915050610b13565b508091505090565b33600260006101000a81548173ffffffffffffffffffffffffffffffffffffffff021916908373ffffffffffffffffffffffffffffffffffffffff16021790555080600460003373ffffffffffffffffffffffffffffffffffffffff1673ffffffffffffffffffffffffffffffffffffffff168152602001908152602001600020541015610d5e57600080fd5b80600460003373ffffffffffffffffffffffffffffffffffffffff1673ffffffffffffffffffffffffffffffffffffffff16815260200190815260200160002054610da991906132be565b600460003373ffffffffffffffffffffffffffffffffffffffff1673ffffffffffffffffffffffffffffffffffffffff16815260200190815260200160002081905550600260009054906101000a900473ffffffffffffffffffffffffffffffffffffffff1673ffffffffffffffffffffffffffffffffffffffff166108fc829081150290604051600060405180830381858888f19350505050158015610e54573d6000803e3d6000fd5b507ff279e6a1f5e320cca91135676d9cb6e44ca8a08c0b88342bcdb1144f6511b5683382600460003373ffffffffffffffffffffffffffffffffffffffff1673ffffffffffffffffffffffffffffffffffffffff16815260200190815260200160002054604051610ec7939291906132f2565b60405180910390a150565b60096020528060005260406000206000915054906101000a900460ff1681565b600080600090505b600180549050811015610f6557828051906020012060018281548110610f2357610f22613217565b5b90600052602060002001604051610f3a91906133c8565b60405180910390201415610f52576001915050610f6b565b8080610f5d90613275565b915050610efa565b50600090505b919050565b7f000000000000000000000000000000000000000000000000000000000000000081565b7f000000000000000000000000000000000000000000000000000000000000000081565b6000600560008381526020019081526020016000206040518060c0016040529081600082015481526020016001820160009054906101000a900473ffffffffffffffffffffffffffffffffffffffff1673ffffffffffffffffffffffffffffffffffffffff1673ffffffffffffffffffffffffffffffffffffffff16815260200160028201805461104890613103565b80601f016020809104026020016040519081016040528092919081815260200182805461107490613103565b80156110c15780601f10611096576101008083540402835291602001916110c1565b820191906000526020600020905b8154815290600101906020018083116110a457829003601f168201915b50505050508152602001600382015481526020016004820154815260200160058201548152505090503373ffffffffffffffffffffffffffffffffffffffff16816020015173ffffffffffffffffffffffffffffffffffffffff161461115c576040517f08c379a000000000000000000000000000000000000000000000000000000000815260040161115390613181565b60405180910390fd5b600060028111156111705761116f613002565b5b6007600084815260200190815260200160002060009054906101000a900460ff1660028111156111a3576111a2613002565b5b146111ad57600080fd5b60016008600084815260200190815260200160002060006101000a81548160ff0219169083151502179055506002808111156111ec576111eb613002565b5b6007600084815260200190815260200160002060009054906101000a900460ff16600281111561121f5761121e613002565b5b50507f605e46eb1441c0674ff6584b5ea1ba9a7f5d53198deaaf2a04338b577b38ab3b8282602001518360400151846060015185608001514260405161126a96959493929190612f2b565b60405180910390a15050565b34600460003373ffffffffffffffffffffffffffffffffffffffff1673ffffffffffffffffffffffffffffffffffffffff168152602001908152602001600020546112c191906133df565b600460003373ffffffffffffffffffffffffffffffffffffffff1673ffffffffffffffffffffffffffffffffffffffff168152602001908152602001600020819055507f90890809c654f11d6e72a28fa60149770a0d11ec6c92319d6ceb2bb0a4ea1a153334600460003373ffffffffffffffffffffffffffffffffffffffff1673ffffffffffffffffffffffffffffffffffffffff16815260200190815260200160002054604051611376939291906132f2565b60405180910390a1565b600360205281600052604060002081805160208101820180518482526020830160208501208183528095505050505050600091509150505481565b600c6020528060005260406000206000915054906101000a900473ffffffffffffffffffffffffffffffffffffffff1681565b60056020528060005260406000206000915090508060000154908060010160009054906101000a900473ffffffffffffffffffffffffffffffffffffffff169080600201805461143d90613103565b80601f016020809104026020016040519081016040528092919081815260200182805461146990613103565b80156114b65780601f1061148b576101008083540402835291602001916114b6565b820191906000526020600020905b81548152906001019060200180831161149957829003601f168201915b5050505050908060030154908060040154908060050154905086565b6114db83610ef2565b61151a576040517f08c379a000000000000000000000000000000000000000000000000000000000815260040161151190613481565b60405180910390fd5b600160065461152991906133df565b600681905550600260076000600654815260200190815260200160002060006101000a81548160ff0219169083600281111561156857611567613002565b5b02179055506040518060c0016040528060065481526020013373ffffffffffffffffffffffffffffffffffffffff168152602001848152602001838152602001828152602001428152506005600060065481526020019081526020016000206000820151816000015560208201518160010160006101000a81548173ffffffffffffffffffffffffffffffffffffffff021916908373ffffffffffffffffffffffffffffffffffffffff1602179055506040820151816002019080519060200190611634929190612892565b50606082015181600301556080820151816004015560a08201518160050155905050600060076000600654815260200190815260200160002060006101000a81548160ff0219169083600281111561168f5761168e613002565b5b021790555081600360003373ffffffffffffffffffffffffffffffffffffffff1673ffffffffffffffffffffffffffffffffffffffff168152602001908152602001600020846040516116e291906134dd565b9081526020016040518091039020819055507f9193cdda35362c821e3d4d240a5fcb0093ad192ac99028d18e5dff3414ee7871600654338585854260405161172f96959493929190612f2b565b60405180910390a1505050565b60076020528060005260406000206000915054906101000a900460ff1681565b60008211801561176e57506006548211155b61177757600080fd5b6000600281111561178b5761178a613002565b5b6007600084815260200190815260200160002060009054906101000a900460ff1660028111156117be576117bd613002565b5b146117c857600080fd5b60003390506000600560008581526020019081526020016000206040518060c0016040529081600082015481526020016001820160009054906101000a900473ffffffffffffffffffffffffffffffffffffffff1673ffffffffffffffffffffffffffffffffffffffff1673ffffffffffffffffffffffffffffffffffffffff16815260200160028201805461185d90613103565b80601f016020809104026020016040519081016040528092919081815260200182805461188990613103565b80156118d65780601f106118ab576101008083540402835291602001916118d6565b820191906000526020600020905b8154815290600101906020018083116118b957829003601f168201915b50505050508152602001600382015481526020016004820154815260200160058201548152505090508060600151831115611946576040517f08c379a000000000000000000000000000000000000000000000000000000000815260040161193d90613540565b60405180910390fd5b60008160800151846119589190613560565b905080600460008573ffffffffffffffffffffffffffffffffffffffff1673ffffffffffffffffffffffffffffffffffffffff1681526020019081526020016000205410156119dc576040517f08c379a00000000000000000000000000000000000000000000000000000000081526004016119d390613606565b60405180910390fd5b6119e8858486846125fd565b60016009600087815260200190815260200160002060006101000a81548160ff02191690831515021790555060016007600087815260200190815260200160002060006101000a81548160ff02191690836002811115611a4b57611a4a613002565b5b021790555082600c600087815260200190815260200160002060006101000a81548173ffffffffffffffffffffffffffffffffffffffff021916908373ffffffffffffffffffffffffffffffffffffffff16021790555080600d60008781526020019081526020016000208190555083600e6000878152602001908152602001600020819055507f7717c4c0039d1e3b8c4e5fea24aea887c3b05f8f7f1e5fe6f041c5b4b58d94a185836020015185856040015188876080015142604051611b1997969594939291906131a1565b60405180910390a15050505050565b6000600460003373ffffffffffffffffffffffffffffffffffffffff1673ffffffffffffffffffffffffffffffffffffffff16815260200190815260200160002054905090565b600a6020528060005260406000206000915054906101000a900460ff1681565b7f000000000000000000000000000000000000000000000000000000000000000073ffffffffffffffffffffffffffffffffffffffff163373ffffffffffffffffffffffffffffffffffffffff1614611c14576040517fbf91ead800000000000000000000000000000000000000000000000000000000815260040160405180910390fd5b600181908060018154018082558091505060019003906000526020600020016000909190919091509080519060200190611c4f929190612892565b5050565b6000600560008381526020019081526020016000206040518060c0016040529081600082015481526020016001820160009054906101000a900473ffffffffffffffffffffffffffffffffffffffff1673ffffffffffffffffffffffffffffffffffffffff1673ffffffffffffffffffffffffffffffffffffffff168152602001600282018054611ce390613103565b80601f0160208091040260200160405190810160405280929190818152602001828054611d0f90613103565b8015611d5c5780601f10611d3157610100808354040283529160200191611d5c565b820191906000526020600020905b815481529060010190602001808311611d3f57829003601f168201915b50505050508152602001600382015481526020016004820154815260200160058201548152505090506000600c600084815260200190815260200160002060009054906101000a900473ffffffffffffffffffffffffffffffffffffffff1690503373ffffffffffffffffffffffffffffffffffffffff16826020015173ffffffffffffffffffffffffffffffffffffffff161480611e2657503373ffffffffffffffffffffffffffffffffffffffff168173ffffffffffffffffffffffffffffffffffffffff16145b611e65576040517f08c379a0000000000000000000000000000000000000000000000000000000008152600401611e5c90613181565b60405180910390fd5b60016002811115611e7957611e78613002565b5b6007600085815260200190815260200160002060009054906101000a900460ff166002811115611eac57611eab613002565b5b14611eb657600080fd5b6000600d60008581526020019081526020016000205490506000600e600086815260200190815260200160002054905081600460008573ffffffffffffffffffffffffffffffffffffffff1673ffffffffffffffffffffffffffffffffffffffff16815260200190815260200160002054611f3191906133df565b600460008573ffffffffffffffffffffffffffffffffffffffff1673ffffffffffffffffffffffffffffffffffffffff1681526020019081526020016000208190555080600360003373ffffffffffffffffffffffffffffffffffffffff1673ffffffffffffffffffffffffffffffffffffffff1681526020019081526020016000208560400151604051611fc691906134dd565b908152602001604051809103902054611fdf91906133df565b600360003373ffffffffffffffffffffffffffffffffffffffff1673ffffffffffffffffffffffffffffffffffffffff168152602001908152602001600020856040015160405161203091906134dd565b90815260200160405180910390208190555060028081111561205557612054613002565b5b6007600087815260200190815260200160002060009054906101000a900460ff16600281111561208857612087613002565b5b505060016008600087815260200190815260200160002060006101000a81548160ff0219169083151502179055507f3f4cd73070ce25691a6ac562de84d1efbdfbb91a5f68c38178f1182736856b09858560200151858760400151858960800151426040516120fd97969594939291906131a1565b60405180910390a15050505050565b7f000000000000000000000000000000000000000000000000000000000000000081565b600e6020528060005260406000206000915090505481565b600b6020528060005260406000206000915054906101000a900460ff1681565b60086020528060005260406000206000915054906101000a900460ff1681565b6000805461219590613103565b80601f01602080910402602001604051908101604052809291908181526020018280546121c190613103565b801561220e5780601f106121e35761010080835404028352916020019161220e565b820191906000526020600020905b8154815290600101906020018083116121f157829003601f168201915b505050505081565b6000600560008681526020019081526020016000206040518060c0016040529081600082015481526020016001820160009054906101000a900473ffffffffffffffffffffffffffffffffffffffff1673ffffffffffffffffffffffffffffffffffffffff1673ffffffffffffffffffffffffffffffffffffffff1681526020016002820180546122a690613103565b80601f01602080910402602001604051908101604052809291908181526020018280546122d290613103565b801561231f5780601f106122f45761010080835404028352916020019161231f565b820191906000526020600020905b81548152906001019060200180831161230257829003601f168201915b50505050508152602001600382015481526020016004820154815260200160058201548152505090506064827f00000000000000000000000000000000000000000000000000000000000000006123769190613560565b6123809190613655565b8261238b91906132be565b91508160046000836020015173ffffffffffffffffffffffffffffffffffffffff1673ffffffffffffffffffffffffffffffffffffffff168152602001908152602001600020546123dc91906133df565b60046000836020015173ffffffffffffffffffffffffffffffffffffffff1673ffffffffffffffffffffffffffffffffffffffff1681526020019081526020016000208190555082600360008673ffffffffffffffffffffffffffffffffffffffff1673ffffffffffffffffffffffffffffffffffffffff168152602001908152602001600020826040015160405161247591906134dd565b90815260200160405180910390205461248e91906133df565b600360008673ffffffffffffffffffffffffffffffffffffffff1673ffffffffffffffffffffffffffffffffffffffff16815260200190815260200160002082604001516040516124df91906134dd565b9081526020016040518091039020819055506064827f000000000000000000000000000000000000000000000000000000000000000061251f9190613560565b6125299190613655565b600460007f000000000000000000000000000000000000000000000000000000000000000073ffffffffffffffffffffffffffffffffffffffff1673ffffffffffffffffffffffffffffffffffffffff1681526020019081526020016000205461259391906133df565b600460007f000000000000000000000000000000000000000000000000000000000000000073ffffffffffffffffffffffffffffffffffffffff1673ffffffffffffffffffffffffffffffffffffffff168152602001908152602001600020819055505050505050565b6000600560008681526020019081526020016000206040518060c0016040529081600082015481526020016001820160009054906101000a900473ffffffffffffffffffffffffffffffffffffffff1673ffffffffffffffffffffffffffffffffffffffff1673ffffffffffffffffffffffffffffffffffffffff16815260200160028201805461268d90613103565b80601f01602080910402602001604051908101604052809291908181526020018280546126b990613103565b80156127065780601f106126db57610100808354040283529160200191612706565b820191906000526020600020905b8154815290600101906020018083116126e957829003601f168201915b505050505081526020016003820154815260200160048201548152602001600582015481525050905081600460008673ffffffffffffffffffffffffffffffffffffffff1673ffffffffffffffffffffffffffffffffffffffff1681526020019081526020016000205461277a91906132be565b600460008673ffffffffffffffffffffffffffffffffffffffff1673ffffffffffffffffffffffffffffffffffffffff1681526020019081526020016000208190555082600360003373ffffffffffffffffffffffffffffffffffffffff1673ffffffffffffffffffffffffffffffffffffffff168152602001908152602001600020826040015160405161280f91906134dd565b90815260200160405180910390205461282891906132be565b600360003373ffffffffffffffffffffffffffffffffffffffff1673ffffffffffffffffffffffffffffffffffffffff168152602001908152602001600020826040015160405161287991906134dd565b9081526020016040518091039020819055505050505050565b82805461289e90613103565b90600052602060002090601f0160209004810192826128c05760008555612907565b82601f106128d957805160ff1916838001178555612907565b82800160010185558215612907579182015b828111156129065782518255916020019190600101906128eb565b5b5090506129149190612918565b5090565b5b80821115612931576000816000905550600101612919565b5090565b6000604051905090565b600080fd5b600080fd5b6000819050919050565b61295c81612949565b811461296757600080fd5b50565b60008135905061297981612953565b92915050565b6000602082840312156129955761299461293f565b5b60006129a38482850161296a565b91505092915050565b6129b581612949565b82525050565b60006020820190506129d060008301846129ac565b92915050565b600081519050919050565b600082825260208201905092915050565b60005b83811015612a105780820151818401526020810190506129f5565b83811115612a1f576000848401525b50505050565b6000601f19601f8301169050919050565b6000612a41826129d6565b612a4b81856129e1565b9350612a5b8185602086016129f2565b612a6481612a25565b840191505092915050565b60006020820190508181036000830152612a898184612a36565b905092915050565b600073ffffffffffffffffffffffffffffffffffffffff82169050919050565b6000612abc82612a91565b9050919050565b612acc81612ab1565b8114612ad757600080fd5b50565b600081359050612ae981612ac3565b92915050565b600060208284031215612b0557612b0461293f565b5b6000612b1384828501612ada565b91505092915050565b600081519050919050565b600082825260208201905092915050565b6000819050602082019050919050565b612b5181612949565b82525050565b612b6081612ab1565b82525050565b600082825260208201905092915050565b6000612b82826129d6565b612b8c8185612b66565b9350612b9c8185602086016129f2565b612ba581612a25565b840191505092915050565b600060c083016000830151612bc86000860182612b48565b506020830151612bdb6020860182612b57565b5060408301518482036040860152612bf38282612b77565b9150506060830151612c086060860182612b48565b506080830151612c1b6080860182612b48565b5060a0830151612c2e60a0860182612b48565b508091505092915050565b6000612c458383612bb0565b905092915050565b6000602082019050919050565b6000612c6582612b1c565b612c6f8185612b27565b935083602082028501612c8185612b38565b8060005b85811015612cbd5784840389528151612c9e8582612c39565b9450612ca983612c4d565b925060208a01995050600181019050612c85565b50829750879550505050505092915050565b60006020820190508181036000830152612ce98184612c5a565b905092915050565b60008115159050919050565b612d0681612cf1565b82525050565b6000602082019050612d216000830184612cfd565b92915050565b600080fd5b600080fd5b7f4e487b7100000000000000000000000000000000000000000000000000000000600052604160045260246000fd5b612d6982612a25565b810181811067ffffffffffffffff82111715612d8857612d87612d31565b5b80604052505050565b6000612d9b612935565b9050612da78282612d60565b919050565b600067ffffffffffffffff821115612dc757612dc6612d31565b5b612dd082612a25565b9050602081019050919050565b82818337600083830152505050565b6000612dff612dfa84612dac565b612d91565b905082815260208101848484011115612e1b57612e1a612d2c565b5b612e26848285612ddd565b509392505050565b600082601f830112612e4357612e42612d27565b5b8135612e53848260208601612dec565b91505092915050565b600060208284031215612e7257612e7161293f565b5b600082013567ffffffffffffffff811115612e9057612e8f612944565b5b612e9c84828501612e2e565b91505092915050565b612eae81612ab1565b82525050565b6000602082019050612ec96000830184612ea5565b92915050565b60008060408385031215612ee657612ee561293f565b5b6000612ef485828601612ada565b925050602083013567ffffffffffffffff811115612f1557612f14612944565b5b612f2185828601612e2e565b9150509250929050565b600060c082019050612f4060008301896129ac565b612f4d6020830188612ea5565b8181036040830152612f5f8187612a36565b9050612f6e60608301866129ac565b612f7b60808301856129ac565b612f8860a08301846129ac565b979650505050505050565b600080600060608486031215612fac57612fab61293f565b5b600084013567ffffffffffffffff811115612fca57612fc9612944565b5b612fd686828701612e2e565b9350506020612fe78682870161296a565b9250506040612ff88682870161296a565b9150509250925092565b7f4e487b7100000000000000000000000000000000000000000000000000000000600052602160045260246000fd5b6003811061304257613041613002565b5b50565b600081905061305382613031565b919050565b600061306382613045565b9050919050565b61307381613058565b82525050565b600060208201905061308e600083018461306a565b92915050565b600080604083850312156130ab576130aa61293f565b5b60006130b98582860161296a565b92505060206130ca8582860161296a565b9150509250929050565b7f4e487b7100000000000000000000000000000000000000000000000000000000600052602260045260246000fd5b6000600282049050600182168061311b57607f821691505b6020821081141561312f5761312e6130d4565b5b50919050565b7f4e6f7420796f7572206f72646572000000000000000000000000000000000000600082015250565b600061316b600e836129e1565b915061317682613135565b602082019050919050565b6000602082019050818103600083015261319a8161315e565b9050919050565b600060e0820190506131b6600083018a6129ac565b6131c36020830189612ea5565b6131d06040830188612ea5565b81810360608301526131e28187612a36565b90506131f160808301866129ac565b6131fe60a08301856129ac565b61320b60c08301846129ac565b98975050505050505050565b7f4e487b7100000000000000000000000000000000000000000000000000000000600052603260045260246000fd5b7f4e487b7100000000000000000000000000000000000000000000000000000000600052601160045260246000fd5b600061328082612949565b91507fffffffffffffffffffffffffffffffffffffffffffffffffffffffffffffffff8214156132b3576132b2613246565b5b600182019050919050565b60006132c982612949565b91506132d483612949565b9250828210156132e7576132e6613246565b5b828203905092915050565b60006060820190506133076000830186612ea5565b61331460208301856129ac565b61332160408301846129ac565b949350505050565b600081905092915050565b60008190508160005260206000209050919050565b6000815461335681613103565b6133608186613329565b9450600182166000811461337b576001811461338c576133bf565b60ff198316865281860193506133bf565b61339585613334565b60005b838110156133b757815481890152600182019150602081019050613398565b838801955050505b50505092915050565b60006133d48284613349565b915081905092915050565b60006133ea82612949565b91506133f583612949565b9250827fffffffffffffffffffffffffffffffffffffffffffffffffffffffffffffffff0382111561342a57613429613246565b5b828201905092915050565b7f4974656d2069732063757272656e746c79206e6f7420616c6c6f776564000000600082015250565b600061346b601d836129e1565b915061347682613435565b602082019050919050565b6000602082019050818103600083015261349a8161345e565b9050919050565b600081905092915050565b60006134b7826129d6565b6134c181856134a1565b93506134d18185602086016129f2565b80840191505092915050565b60006134e982846134ac565b915081905092915050565b7f52656475636520746865207175616e7469747900000000000000000000000000600082015250565b600061352a6013836129e1565b9150613535826134f4565b602082019050919050565b600060208201905081810360008301526135598161351d565b9050919050565b600061356b82612949565b915061357683612949565b9250817fffffffffffffffffffffffffffffffffffffffffffffffffffffffffffffffff04831182151516156135af576135ae613246565b5b828202905092915050565b7f596f75206e656564206d6f726520657468000000000000000000000000000000600082015250565b60006135f06011836129e1565b91506135fb826135ba565b602082019050919050565b6000602082019050818103600083015261361f816135e3565b9050919050565b7f4e487b7100000000000000000000000000000000000000000000000000000000600052601260045260246000fd5b600061366082612949565b915061366b83612949565b92508261367b5761367a613626565b5b82820490509291505056fea264697066735822122059e2313a67a7bfdf7d6f2cfb664d45cfc1fe2bde726a75968d19085e85bdb37164736f6c63430008080033",
  "devdoc": {
    "author": "Abolaji",
    "kind": "dev",
    "methods": {},
    "title": "A contract for buying and selling items",
    "version": 1
  },
  "userdoc": {
    "kind": "user",
    "methods": {},
    "version": 1
  },
  "storageLayout": {
    "storage": [
      {
        "astId": 140,
        "contract": "contracts/Marketplace.sol:Marketplace",
        "label": "item",
        "offset": 0,
        "slot": "0",
        "type": "t_string_storage"
      },
      {
        "astId": 143,
        "contract": "contracts/Marketplace.sol:Marketplace",
        "label": "allowedItems",
        "offset": 0,
        "slot": "1",
        "type": "t_array(t_string_storage)dyn_storage"
      },
      {
        "astId": 145,
        "contract": "contracts/Marketplace.sol:Marketplace",
        "label": "user",
        "offset": 0,
        "slot": "2",
        "type": "t_address_payable"
      },
      {
        "astId": 164,
        "contract": "contracts/Marketplace.sol:Marketplace",
        "label": "goods",
        "offset": 0,
        "slot": "3",
        "type": "t_mapping(t_address,t_mapping(t_string_memory_ptr,t_uint256))"
      },
      {
        "astId": 168,
        "contract": "contracts/Marketplace.sol:Marketplace",
        "label": "getBal",
        "offset": 0,
        "slot": "4",
        "type": "t_mapping(t_address,t_uint256)"
      },
      {
        "astId": 173,
        "contract": "contracts/Marketplace.sol:Marketplace",
        "label": "orders",
        "offset": 0,
        "slot": "5",
        "type": "t_mapping(t_uint256,t_struct(_order)158_storage)"
      },
      {
        "astId": 175,
        "contract": "contracts/Marketplace.sol:Marketplace",
        "label": "orderCount",
        "offset": 0,
        "slot": "6",
        "type": "t_uint256"
      },
      {
        "astId": 180,
        "contract": "contracts/Marketplace.sol:Marketplace",
        "label": "orderStatus",
        "offset": 0,
        "slot": "7",
        "type": "t_mapping(t_uint256,t_enum(ORDER_STATE)304)"
      },
      {
        "astId": 184,
        "contract": "contracts/Marketplace.sol:Marketplace",
        "label": "orderCancelled",
        "offset": 0,
        "slot": "8",
        "type": "t_mapping(t_uint256,t_bool)"
      },
      {
        "astId": 188,
        "contract": "contracts/Marketplace.sol:Marketplace",
        "label": "orderFilled",
        "offset": 0,
        "slot": "9",
        "type": "t_mapping(t_uint256,t_bool)"
      },
      {
        "astId": 192,
        "contract": "contracts/Marketplace.sol:Marketplace",
        "label": "orderCreated",
        "offset": 0,
        "slot": "10",
        "type": "t_mapping(t_uint256,t_bool)"
      },
      {
        "astId": 196,
        "contract": "contracts/Marketplace.sol:Marketplace",
        "label": "orderDelivered",
        "offset": 0,
        "slot": "11",
        "type": "t_mapping(t_uint256,t_bool)"
      },
      {
        "astId": 200,
        "contract": "contracts/Marketplace.sol:Marketplace",
        "label": "Buyers",
        "offset": 0,
        "slot": "12",
        "type": "t_mapping(t_uint256,t_address)"
      },
      {
        "astId": 204,
        "contract": "contracts/Marketplace.sol:Marketplace",
        "label": "filledAmount",
        "offset": 0,
        "slot": "13",
        "type": "t_mapping(t_uint256,t_uint256)"
      },
      {
        "astId": 208,
        "contract": "contracts/Marketplace.sol:Marketplace",
        "label": "filledQuantity",
        "offset": 0,
        "slot": "14",
        "type": "t_mapping(t_uint256,t_uint256)"
      }
    ],
    "types": {
      "t_address": {
        "encoding": "inplace",
        "label": "address",
        "numberOfBytes": "20"
      },
      "t_address_payable": {
        "encoding": "inplace",
        "label": "address payable",
        "numberOfBytes": "20"
      },
      "t_array(t_string_storage)dyn_storage": {
        "base": "t_string_storage",
        "encoding": "dynamic_array",
        "label": "string[]",
        "numberOfBytes": "32"
      },
      "t_bool": {
        "encoding": "inplace",
        "label": "bool",
        "numberOfBytes": "1"
      },
      "t_enum(ORDER_STATE)304": {
        "encoding": "inplace",
        "label": "enum Marketplace.ORDER_STATE",
        "numberOfBytes": "1"
      },
      "t_mapping(t_address,t_mapping(t_string_memory_ptr,t_uint256))": {
        "encoding": "mapping",
        "key": "t_address",
        "label": "mapping(address => mapping(string => uint256))",
        "numberOfBytes": "32",
        "value": "t_mapping(t_string_memory_ptr,t_uint256)"
      },
      "t_mapping(t_address,t_uint256)": {
        "encoding": "mapping",
        "key": "t_address",
        "label": "mapping(address => uint256)",
        "numberOfBytes": "32",
        "value": "t_uint256"
      },
      "t_mapping(t_string_memory_ptr,t_uint256)": {
        "encoding": "mapping",
        "key": "t_string_memory_ptr",
        "label": "mapping(string => uint256)",
        "numberOfBytes": "32",
        "value": "t_uint256"
      },
      "t_mapping(t_uint256,t_address)": {
        "encoding": "mapping",
        "key": "t_uint256",
        "label": "mapping(uint256 => address)",
        "numberOfBytes": "32",
        "value": "t_address"
      },
      "t_mapping(t_uint256,t_bool)": {
        "encoding": "mapping",
        "key": "t_uint256",
        "label": "mapping(uint256 => bool)",
        "numberOfBytes": "32",
        "value": "t_bool"
      },
      "t_mapping(t_uint256,t_enum(ORDER_STATE)304)": {
        "encoding": "mapping",
        "key": "t_uint256",
        "label": "mapping(uint256 => enum Marketplace.ORDER_STATE)",
        "numberOfBytes": "32",
        "value": "t_enum(ORDER_STATE)304"
      },
      "t_mapping(t_uint256,t_struct(_order)158_storage)": {
        "encoding": "mapping",
        "key": "t_uint256",
        "label": "mapping(uint256 => struct Marketplace._order)",
        "numberOfBytes": "32",
        "value": "t_struct(_order)158_storage"
      },
      "t_mapping(t_uint256,t_uint256)": {
        "encoding": "mapping",
        "key": "t_uint256",
        "label": "mapping(uint256 => uint256)",
        "numberOfBytes": "32",
        "value": "t_uint256"
      },
      "t_string_memory_ptr": {
        "encoding": "bytes",
        "label": "string",
        "numberOfBytes": "32"
      },
      "t_string_storage": {
        "encoding": "bytes",
        "label": "string",
        "numberOfBytes": "32"
      },
      "t_struct(_order)158_storage": {
        "encoding": "inplace",
        "label": "struct Marketplace._order",
        "members": [
          {
            "astId": 147,
            "contract": "contracts/Marketplace.sol:Marketplace",
            "label": "id",
            "offset": 0,
            "slot": "0",
            "type": "t_uint256"
          },
          {
            "astId": 149,
            "contract": "contracts/Marketplace.sol:Marketplace",
            "label": "seller",
            "offset": 0,
            "slot": "1",
            "type": "t_address"
          },
          {
            "astId": 151,
            "contract": "contracts/Marketplace.sol:Marketplace",
            "label": "item",
            "offset": 0,
            "slot": "2",
            "type": "t_string_storage"
          },
          {
            "astId": 153,
            "contract": "contracts/Marketplace.sol:Marketplace",
            "label": "qtty_to_sell",
            "offset": 0,
            "slot": "3",
            "type": "t_uint256"
          },
          {
            "astId": 155,
            "contract": "contracts/Marketplace.sol:Marketplace",
            "label": "price",
            "offset": 0,
            "slot": "4",
            "type": "t_uint256"
          },
          {
            "astId": 157,
            "contract": "contracts/Marketplace.sol:Marketplace",
            "label": "timestamp",
            "offset": 0,
            "slot": "5",
            "type": "t_uint256"
          }
        ],
        "numberOfBytes": "192"
      },
      "t_uint256": {
        "encoding": "inplace",
        "label": "uint256",
        "numberOfBytes": "32"
      }
    }
  }
}