{
  "address": "0x53794B7A8d2175afa72d35CC3ee4bBC6eCed5cdc",
  "abi": [
    {
      "inputs": [
        {
          "internalType": "address",
          "name": "_feeAccount",
          "type": "address"
        },
        {
          "internalType": "uint256",
          "name": "_feePercent",
          "type": "uint256"
        }
      ],
      "stateMutability": "nonpayable",
      "type": "constructor"
    },
    {
      "inputs": [],
      "name": "Marketplace__NotOwner",
      "type": "error"
    },
    {
      "inputs": [],
      "name": "Marketplace__SmallerBalance",
      "type": "error"
    },
    {
      "anonymous": false,
      "inputs": [
        {
          "indexed": true,
          "internalType": "uint256",
          "name": "id",
          "type": "uint256"
        },
        {
          "indexed": true,
          "internalType": "address",
          "name": "seller",
          "type": "address"
        },
        {
          "indexed": false,
          "internalType": "address",
          "name": "buyer",
          "type": "address"
        },
        {
          "indexed": false,
          "internalType": "string",
          "name": "item",
          "type": "string"
        },
        {
          "indexed": true,
          "internalType": "uint256",
          "name": "qtty_bought",
          "type": "uint256"
        },
        {
          "indexed": false,
          "internalType": "uint256",
          "name": "price",
          "type": "uint256"
        },
        {
          "indexed": false,
          "internalType": "uint256",
          "name": "timestamp",
          "type": "uint256"
        }
      ],
      "name": "CancelFilledOrder",
      "type": "event"
    },
    {
      "anonymous": false,
      "inputs": [
        {
          "indexed": true,
          "internalType": "uint256",
          "name": "id",
          "type": "uint256"
        },
        {
          "indexed": true,
          "internalType": "address",
          "name": "seller",
          "type": "address"
        },
        {
          "indexed": false,
          "internalType": "string",
          "name": "item",
          "type": "string"
        },
        {
          "indexed": true,
          "internalType": "uint256",
          "name": "qtty_to_sell",
          "type": "uint256"
        },
        {
          "indexed": false,
          "internalType": "uint256",
          "name": "price",
          "type": "uint256"
        },
        {
          "indexed": false,
          "internalType": "uint256",
          "name": "timestamp",
          "type": "uint256"
        }
      ],
      "name": "CancelOpenOrder",
      "type": "event"
    },
    {
      "anonymous": false,
      "inputs": [
        {
          "indexed": true,
          "internalType": "address",
          "name": "user",
          "type": "address"
        },
        {
          "indexed": true,
          "internalType": "uint256",
          "name": "amount",
          "type": "uint256"
        },
        {
          "indexed": false,
          "internalType": "uint256",
          "name": "bal",
          "type": "uint256"
        }
      ],
      "name": "Deposit",
      "type": "event"
    },
    {
      "anonymous": false,
      "inputs": [
        {
          "indexed": true,
          "internalType": "uint256",
          "name": "id",
          "type": "uint256"
        },
        {
          "indexed": true,
          "internalType": "address",
          "name": "seller",
          "type": "address"
        },
        {
          "indexed": false,
          "internalType": "string",
          "name": "item",
          "type": "string"
        },
        {
          "indexed": true,
          "internalType": "uint256",
          "name": "qtty_to_sell",
          "type": "uint256"
        },
        {
          "indexed": false,
          "internalType": "uint256",
          "name": "price",
          "type": "uint256"
        },
        {
          "indexed": false,
          "internalType": "uint256",
          "name": "timestamp",
          "type": "uint256"
        }
      ],
      "name": "OrderCreated",
      "type": "event"
    },
    {
      "anonymous": false,
      "inputs": [
        {
          "indexed": true,
          "internalType": "uint256",
          "name": "id",
          "type": "uint256"
        },
        {
          "indexed": true,
          "internalType": "address",
          "name": "seller",
          "type": "address"
        },
        {
          "indexed": false,
          "internalType": "address",
          "name": "buyer",
          "type": "address"
        },
        {
          "indexed": false,
          "internalType": "string",
          "name": "item",
          "type": "string"
        },
        {
          "indexed": true,
          "internalType": "uint256",
          "name": "qtty_bought",
          "type": "uint256"
        },
        {
          "indexed": false,
          "internalType": "uint256",
          "name": "price",
          "type": "uint256"
        },
        {
          "indexed": false,
          "internalType": "uint256",
          "name": "timestamp",
          "type": "uint256"
        }
      ],
      "name": "OrderDelivered",
      "type": "event"
    },
    {
      "anonymous": false,
      "inputs": [
        {
          "indexed": true,
          "internalType": "uint256",
          "name": "id",
          "type": "uint256"
        },
        {
          "indexed": true,
          "internalType": "address",
          "name": "seller",
          "type": "address"
        },
        {
          "indexed": false,
          "internalType": "address",
          "name": "buyer",
          "type": "address"
        },
        {
          "indexed": false,
          "internalType": "string",
          "name": "item",
          "type": "string"
        },
        {
          "indexed": true,
          "internalType": "uint256",
          "name": "qtty_bought",
          "type": "uint256"
        },
        {
          "indexed": false,
          "internalType": "uint256",
          "name": "price",
          "type": "uint256"
        },
        {
          "indexed": false,
          "internalType": "uint256",
          "name": "timestamp",
          "type": "uint256"
        }
      ],
      "name": "OrderFilled",
      "type": "event"
    },
    {
      "anonymous": false,
      "inputs": [
        {
          "indexed": true,
          "internalType": "address",
          "name": "user",
          "type": "address"
        },
        {
          "indexed": true,
          "internalType": "uint256",
          "name": "amount",
          "type": "uint256"
        },
        {
          "indexed": false,
          "internalType": "uint256",
          "name": "bal",
          "type": "uint256"
        }
      ],
      "name": "Withdraw",
      "type": "event"
    },
    {
      "inputs": [
        {
          "internalType": "uint256",
          "name": "",
          "type": "uint256"
        }
      ],
      "name": "Buyers",
      "outputs": [
        {
          "internalType": "address",
          "name": "",
          "type": "address"
        }
      ],
      "stateMutability": "view",
      "type": "function"
    },
    {
      "inputs": [
        {
          "internalType": "uint256",
          "name": "_id",
          "type": "uint256"
        }
      ],
      "name": "OrderReceived",
      "outputs": [],
      "stateMutability": "nonpayable",
      "type": "function"
    },
    {
      "inputs": [
        {
          "internalType": "string",
          "name": "_item",
          "type": "string"
        }
      ],
      "name": "addAllowedItems",
      "outputs": [],
      "stateMutability": "nonpayable",
      "type": "function"
    },
    {
      "inputs": [
        {
          "internalType": "uint256",
          "name": "",
          "type": "uint256"
        }
      ],
      "name": "allowedItems",
      "outputs": [
        {
          "internalType": "string",
          "name": "",
          "type": "string"
        }
      ],
      "stateMutability": "view",
      "type": "function"
    },
    {
      "inputs": [
        {
          "internalType": "uint256",
          "name": "_id",
          "type": "uint256"
        }
      ],
      "name": "cancelFilledOrder",
      "outputs": [],
      "stateMutability": "nonpayable",
      "type": "function"
    },
    {
      "inputs": [
        {
          "internalType": "uint256",
          "name": "_id",
          "type": "uint256"
        }
      ],
      "name": "cancelOpenOrder",
      "outputs": [],
      "stateMutability": "nonpayable",
      "type": "function"
    },
    {
      "inputs": [],
      "name": "depositEther",
      "outputs": [],
      "stateMutability": "payable",
      "type": "function"
    },
    {
      "inputs": [],
      "name": "feePercent",
      "outputs": [
        {
          "internalType": "uint256",
          "name": "",
          "type": "uint256"
        }
      ],
      "stateMutability": "view",
      "type": "function"
    },
    {
      "inputs": [
        {
          "internalType": "uint256",
          "name": "_id",
          "type": "uint256"
        },
        {
          "internalType": "uint256",
          "name": "_quantity",
          "type": "uint256"
        }
      ],
      "name": "fillOrder",
      "outputs": [],
      "stateMutability": "nonpayable",
      "type": "function"
    },
    {
      "inputs": [
        {
          "internalType": "uint256",
          "name": "",
          "type": "uint256"
        }
      ],
      "name": "filledAmount",
      "outputs": [
        {
          "internalType": "uint256",
          "name": "",
          "type": "uint256"
        }
      ],
      "stateMutability": "view",
      "type": "function"
    },
    {
      "inputs": [
        {
          "internalType": "uint256",
          "name": "",
          "type": "uint256"
        }
      ],
      "name": "filledQuantity",
      "outputs": [
        {
          "internalType": "uint256",
          "name": "",
          "type": "uint256"
        }
      ],
      "stateMutability": "view",
      "type": "function"
    },
    {
      "inputs": [],
      "name": "getAllowedItems",
      "outputs": [
        {
          "internalType": "string[]",
          "name": "",
          "type": "string[]"
        }
      ],
      "stateMutability": "view",
      "type": "function"
    },
    {
      "inputs": [
        {
          "internalType": "address",
          "name": "",
          "type": "address"
        }
      ],
      "name": "getBal",
      "outputs": [
        {
          "internalType": "uint256",
          "name": "",
          "type": "uint256"
        }
      ],
      "stateMutability": "view",
      "type": "function"
    },
    {
      "inputs": [
        {
          "internalType": "address",
          "name": "",
          "type": "address"
        },
        {
          "internalType": "string",
          "name": "",
          "type": "string"
        }
      ],
      "name": "goods",
      "outputs": [
        {
          "internalType": "uint256",
          "name": "",
          "type": "uint256"
        }
      ],
      "stateMutability": "view",
      "type": "function"
    },
    {
      "inputs": [],
      "name": "i_owner",
      "outputs": [
        {
          "internalType": "address",
          "name": "",
          "type": "address"
        }
      ],
      "stateMutability": "view",
      "type": "function"
    },
    {
      "inputs": [],
      "name": "item",
      "outputs": [
        {
          "internalType": "string",
          "name": "",
          "type": "string"
        }
      ],
      "stateMutability": "view",
      "type": "function"
    },
    {
      "inputs": [
        {
          "internalType": "string",
          "name": "_item",
          "type": "string"
        }
      ],
      "name": "itemIsAllowed",
      "outputs": [
        {
          "internalType": "bool",
          "name": "",
          "type": "bool"
        }
      ],
      "stateMutability": "view",
      "type": "function"
    },
    {
      "inputs": [
        {
          "internalType": "string",
          "name": "_item",
          "type": "string"
        },
        {
          "internalType": "uint256",
          "name": "_quantity",
          "type": "uint256"
        },
        {
          "internalType": "uint256",
          "name": "_price",
          "type": "uint256"
        }
      ],
      "name": "makeOrder",
      "outputs": [],
      "stateMutability": "nonpayable",
      "type": "function"
    },
    {
      "inputs": [],
      "name": "myBalance",
      "outputs": [
        {
          "internalType": "uint256",
          "name": "",
          "type": "uint256"
        }
      ],
      "stateMutability": "view",
      "type": "function"
    },
    {
      "inputs": [],
      "name": "open_order",
      "outputs": [
        {
          "internalType": "uint256[]",
          "name": "idOrder",
          "type": "uint256[]"
        },
        {
          "internalType": "string[]",
          "name": "_item",
          "type": "string[]"
        },
        {
          "internalType": "uint256[]",
          "name": "_qty",
          "type": "uint256[]"
        },
        {
          "internalType": "uint256[]",
          "name": "_prc",
          "type": "uint256[]"
        }
      ],
      "stateMutability": "view",
      "type": "function"
    },
    {
      "inputs": [
        {
          "internalType": "uint256",
          "name": "",
          "type": "uint256"
        }
      ],
      "name": "orderCancelled",
      "outputs": [
        {
          "internalType": "bool",
          "name": "",
          "type": "bool"
        }
      ],
      "stateMutability": "view",
      "type": "function"
    },
    {
      "inputs": [],
      "name": "orderCount",
      "outputs": [
        {
          "internalType": "uint256",
          "name": "",
          "type": "uint256"
        }
      ],
      "stateMutability": "view",
      "type": "function"
    },
    {
      "inputs": [
        {
          "internalType": "uint256",
          "name": "",
          "type": "uint256"
        }
      ],
      "name": "orderCreated",
      "outputs": [
        {
          "internalType": "bool",
          "name": "",
          "type": "bool"
        }
      ],
      "stateMutability": "view",
      "type": "function"
    },
    {
      "inputs": [
        {
          "internalType": "uint256",
          "name": "",
          "type": "uint256"
        }
      ],
      "name": "orderDelivered",
      "outputs": [
        {
          "internalType": "bool",
          "name": "",
          "type": "bool"
        }
      ],
      "stateMutability": "view",
      "type": "function"
    },
    {
      "inputs": [
        {
          "internalType": "uint256",
          "name": "",
          "type": "uint256"
        }
      ],
      "name": "orderFilled",
      "outputs": [
        {
          "internalType": "bool",
          "name": "",
          "type": "bool"
        }
      ],
      "stateMutability": "view",
      "type": "function"
    },
    {
      "inputs": [
        {
          "internalType": "uint256",
          "name": "",
          "type": "uint256"
        }
      ],
      "name": "orderStatus",
      "outputs": [
        {
          "internalType": "enum Marketplace.ORDER_STATE",
          "name": "",
          "type": "uint8"
        }
      ],
      "stateMutability": "view",
      "type": "function"
    },
    {
      "inputs": [
        {
          "internalType": "uint256",
          "name": "",
          "type": "uint256"
        }
      ],
      "name": "orders",
      "outputs": [
        {
          "internalType": "uint256",
          "name": "id",
          "type": "uint256"
        },
        {
          "internalType": "address",
          "name": "seller",
          "type": "address"
        },
        {
          "internalType": "string",
          "name": "item",
          "type": "string"
        },
        {
          "internalType": "uint256",
          "name": "qtty_to_sell",
          "type": "uint256"
        },
        {
          "internalType": "uint256",
          "name": "price",
          "type": "uint256"
        },
        {
          "internalType": "uint256",
          "name": "timestamp",
          "type": "uint256"
        }
      ],
      "stateMutability": "view",
      "type": "function"
    },
    {
      "inputs": [
        {
          "internalType": "uint256",
          "name": "_amount",
          "type": "uint256"
        }
      ],
      "name": "withdrawEther",
      "outputs": [],
      "stateMutability": "nonpayable",
      "type": "function"
    }
  ],
  "transactionHash": "0x1ca1363af391172fc19791d0661e472ae24aeb96bdc974417813c8e8c8fc0daa",
  "args": [
    "0xEcE425Bc97E85A208949B9449252C40C9AA356C1",
    5
  ],
  "numDeployments": 1,
  "solcInputHash": "fcd089078be018729a7f4bc6bba1a97f",
  "bytecode": "0x60e06040523480156200001157600080fd5b5060405162003d5938038062003d59833981810160405281019062000037919062000162565b60016000819055508173ffffffffffffffffffffffffffffffffffffffff1660808173ffffffffffffffffffffffffffffffffffffffff1660601b815250508060a081815250503373ffffffffffffffffffffffffffffffffffffffff1660c08173ffffffffffffffffffffffffffffffffffffffff1660601b815250505050620001a9565b600080fd5b600073ffffffffffffffffffffffffffffffffffffffff82169050919050565b6000620000ef82620000c2565b9050919050565b6200010181620000e2565b81146200010d57600080fd5b50565b6000815190506200012181620000f6565b92915050565b6000819050919050565b6200013c8162000127565b81146200014857600080fd5b50565b6000815190506200015c8162000131565b92915050565b600080604083850312156200017c576200017b620000bd565b5b60006200018c8582860162000110565b92505060206200019f858286016200014b565b9150509250929050565b60805160601c60a05160c05160601c613b5e620001fb60003960008181611f16015261251301526000818161129f0152818161275201526128fb015260008181612934015261299e0152613b5e6000f3fe6080604052600436106101b75760003560e01c8063a443df94116100ec578063cb3968b51161008a578063dbdea44c11610064578063dbdea44c14610651578063e742a1821461068e578063e9c18966146106cb578063f2a4a82e14610708576101b7565b8063cb3968b5146105d4578063d55a7bcb146105fd578063dba6335f14610626576101b7565b8063bff49450116100c6578063bff4945014610506578063c37dfc5b14610543578063c9116b691461056c578063c94c2b8d14610597576101b7565b8063a443df941461045e578063a85c38ef1461049b578063a8e87b8a146104dd576101b7565b8063493047fc116101595780637fd6f15c116101335780637fd6f15c146103c3578063812538e1146103ee57806398ea5fca146104175780639b40ae7f14610421576101b7565b8063493047fc1461031e5780634a93e0da146103495780634f16587314610386576101b7565b80632e6e91aa116101955780632e6e91aa1461024d5780632fa780851461028a578063364315dd146102c75780633bed33ce146102f5576101b7565b80630da1e350146101bc5780631df9ccaa146101e55780632453ffa814610222575b600080fd5b3480156101c857600080fd5b506101e360048036038101906101de9190612dcc565b610733565b005b3480156101f157600080fd5b5061020c60048036038101906102079190612dcc565b610aaa565b6040516102199190612e08565b60405180910390f35b34801561022e57600080fd5b50610237610ac2565b6040516102449190612e08565b60405180910390f35b34801561025957600080fd5b50610274600480360381019061026f9190612dcc565b610ac8565b6040516102819190612ebc565b60405180910390f35b34801561029657600080fd5b506102b160048036038101906102ac9190612f3c565b610b74565b6040516102be9190612e08565b60405180910390f35b3480156102d357600080fd5b506102dc610b8c565b6040516102ec9493929190613133565b60405180910390f35b34801561030157600080fd5b5061031c60048036038101906103179190612dcc565b610ee4565b005b34801561032a57600080fd5b50610333611126565b6040516103409190613194565b60405180910390f35b34801561035557600080fd5b50610370600480360381019061036b9190612dcc565b6111ff565b60405161037d91906131d1565b60405180910390f35b34801561039257600080fd5b506103ad60048036038101906103a89190613321565b61121f565b6040516103ba91906131d1565b60405180910390f35b3480156103cf57600080fd5b506103d861129d565b6040516103e59190612e08565b60405180910390f35b3480156103fa57600080fd5b5061041560048036038101906104109190612dcc565b6112c1565b005b61041f6115ff565b005b34801561042d57600080fd5b506104486004803603810190610443919061336a565b61171d565b6040516104559190612e08565b60405180910390f35b34801561046a57600080fd5b5061048560048036038101906104809190612dcc565b611758565b60405161049291906133d5565b60405180910390f35b3480156104a757600080fd5b506104c260048036038101906104bd9190612dcc565b61178b565b6040516104d4969594939291906133f0565b60405180910390f35b3480156104e957600080fd5b5061050460048036038101906104ff9190613458565b61186f565b005b34801561051257600080fd5b5061052d60048036038101906105289190612dcc565b611aae565b60405161053a919061353e565b60405180910390f35b34801561054f57600080fd5b5061056a60048036038101906105659190613559565b611ace565b005b34801561057857600080fd5b50610581611ead565b60405161058e9190612e08565b60405180910390f35b3480156105a357600080fd5b506105be60048036038101906105b99190612dcc565b611ef4565b6040516105cb91906131d1565b60405180910390f35b3480156105e057600080fd5b506105fb60048036038101906105f69190613321565b611f14565b005b34801561060957600080fd5b50610624600480360381019061061f9190612dcc565b611fd8565b005b34801561063257600080fd5b5061063b612511565b60405161064891906133d5565b60405180910390f35b34801561065d57600080fd5b5061067860048036038101906106739190612dcc565b612535565b6040516106859190612e08565b60405180910390f35b34801561069a57600080fd5b506106b560048036038101906106b09190612dcc565b61254d565b6040516106c291906131d1565b60405180910390f35b3480156106d757600080fd5b506106f260048036038101906106ed9190612dcc565b61256d565b6040516106ff91906131d1565b60405180910390f35b34801561071457600080fd5b5061071d61258d565b60405161072a9190612ebc565b60405180910390f35b6000600c600083815260200190815260200160002060009054906101000a900473ffffffffffffffffffffffffffffffffffffffff1690506000600660008481526020019081526020016000206040518060c0016040529081600082015481526020016001820160009054906101000a900473ffffffffffffffffffffffffffffffffffffffff1673ffffffffffffffffffffffffffffffffffffffff1673ffffffffffffffffffffffffffffffffffffffff1681526020016002820180546107fb906135c8565b80601f0160208091040260200160405190810160405280929190818152602001828054610827906135c8565b80156108745780601f1061084957610100808354040283529160200191610874565b820191906000526020600020905b81548152906001019060200180831161085757829003601f168201915b5050505050815260200160038201548152602001600482015481526020016005820154815250509050600160028111156108b1576108b06134c7565b5b6007600085815260200190815260200160002060009054906101000a900460ff1660028111156108e4576108e36134c7565b5b146108ee57600080fd5b8173ffffffffffffffffffffffffffffffffffffffff163373ffffffffffffffffffffffffffffffffffffffff161461095c576040517f08c379a000000000000000000000000000000000000000000000000000000000815260040161095390613646565b60405180910390fd5b6000600d60008581526020019081526020016000205490506000600e60008681526020019081526020016000205490506109988585838561261b565b60026007600087815260200190815260200160002060006101000a81548160ff021916908360028111156109cf576109ce6134c7565b5b021790555080836020015173ffffffffffffffffffffffffffffffffffffffff16867f7dfc2e96d4e9bfa63e26f3d2a2c37873074e8ad79d74ea908e97c8ae7d796a97878760400151886080015142604051610a2e9493929190613666565b60405180910390a4600660008681526020019081526020016000206000808201600090556001820160006101000a81549073ffffffffffffffffffffffffffffffffffffffff0219169055600282016000610a899190612c9f565b60038201600090556004820160009055600582016000905550505050505050565b600d6020528060005260406000206000915090505481565b60035481565b600f8181548110610ad857600080fd5b906000526020600020016000915090508054610af3906135c8565b80601f0160208091040260200160405190810160405280929190818152602001828054610b1f906135c8565b8015610b6c5780601f10610b4157610100808354040283529160200191610b6c565b820191906000526020600020905b815481529060010190602001808311610b4f57829003601f168201915b505050505081565b60056020528060005260406000206000915090505481565b60608060608060035467ffffffffffffffff811115610bae57610bad6131f6565b5b604051908082528060200260200182016040528015610bdc5781602001602082028036833780820191505090505b50935060035467ffffffffffffffff811115610bfb57610bfa6131f6565b5b604051908082528060200260200182016040528015610c2e57816020015b6060815260200190600190039081610c195790505b50925060035467ffffffffffffffff811115610c4d57610c4c6131f6565b5b604051908082528060200260200182016040528015610c7b5781602001602082028036833780820191505090505b50915060035467ffffffffffffffff811115610c9a57610c996131f6565b5b604051908082528060200260200182016040528015610cc85781602001602082028036833780820191505090505b5090506000600190505b6003548111610edd5760006002811115610cef57610cee6134c7565b5b6007600083815260200190815260200160002060009054906101000a900460ff166002811115610d2257610d216134c7565b5b1415610eca57600660008281526020019081526020016000206000015485600183610d4d91906136e1565b81518110610d5e57610d5d613715565b5b602002602001018181525050600660008281526020019081526020016000206002018054610d8b906135c8565b80601f0160208091040260200160405190810160405280929190818152602001828054610db7906135c8565b8015610e045780601f10610dd957610100808354040283529160200191610e04565b820191906000526020600020905b815481529060010190602001808311610de757829003601f168201915b505050505084600183610e1791906136e1565b81518110610e2857610e27613715565b5b6020026020010181905250600660008281526020019081526020016000206003015483600183610e5891906136e1565b81518110610e6957610e68613715565b5b60200260200101818152505066038d7ea4c680006006600083815260200190815260200160002060040154610e9e9190613773565b82600183610eac91906136e1565b81518110610ebd57610ebc613715565b5b6020026020010181815250505b8080610ed5906137a4565b915050610cd2565b5090919293565b33600260006101000a81548173ffffffffffffffffffffffffffffffffffffffff021916908373ffffffffffffffffffffffffffffffffffffffff16021790555080600560003373ffffffffffffffffffffffffffffffffffffffff1673ffffffffffffffffffffffffffffffffffffffff168152602001908152602001600020541015610f9e576040517fadc1f4ce00000000000000000000000000000000000000000000000000000000815260040160405180910390fd5b80600560003373ffffffffffffffffffffffffffffffffffffffff1673ffffffffffffffffffffffffffffffffffffffff16815260200190815260200160002054610fe991906136e1565b600560003373ffffffffffffffffffffffffffffffffffffffff1673ffffffffffffffffffffffffffffffffffffffff16815260200190815260200160002081905550600260009054906101000a900473ffffffffffffffffffffffffffffffffffffffff1673ffffffffffffffffffffffffffffffffffffffff166108fc829081150290604051600060405180830381858888f19350505050158015611094573d6000803e3d6000fd5b50803373ffffffffffffffffffffffffffffffffffffffff167ff279e6a1f5e320cca91135676d9cb6e44ca8a08c0b88342bcdb1144f6511b568600560003373ffffffffffffffffffffffffffffffffffffffff1673ffffffffffffffffffffffffffffffffffffffff1681526020019081526020016000205460405161111b9190612e08565b60405180910390a350565b6060600f805480602002602001604051908101604052809291908181526020016000905b828210156111f6578382906000526020600020018054611169906135c8565b80601f0160208091040260200160405190810160405280929190818152602001828054611195906135c8565b80156111e25780601f106111b7576101008083540402835291602001916111e2565b820191906000526020600020905b8154815290600101906020018083116111c557829003601f168201915b50505050508152602001906001019061114a565b50505050905090565b60096020528060005260406000206000915054906101000a900460ff1681565b600080600090505b600f80549050811015611292578280519060200120600f82815481106112505761124f613715565b5b90600052602060002001604051611267919061388c565b6040518091039020141561127f576001915050611298565b808061128a906137a4565b915050611227565b50600090505b919050565b7f000000000000000000000000000000000000000000000000000000000000000081565b6000600660008381526020019081526020016000206040518060c0016040529081600082015481526020016001820160009054906101000a900473ffffffffffffffffffffffffffffffffffffffff1673ffffffffffffffffffffffffffffffffffffffff1673ffffffffffffffffffffffffffffffffffffffff168152602001600282018054611351906135c8565b80601f016020809104026020016040519081016040528092919081815260200182805461137d906135c8565b80156113ca5780601f1061139f576101008083540402835291602001916113ca565b820191906000526020600020905b8154815290600101906020018083116113ad57829003601f168201915b50505050508152602001600382015481526020016004820154815260200160058201548152505090503373ffffffffffffffffffffffffffffffffffffffff16816020015173ffffffffffffffffffffffffffffffffffffffff1614611465576040517f08c379a000000000000000000000000000000000000000000000000000000000815260040161145c90613646565b60405180910390fd5b60006002811115611479576114786134c7565b5b6007600084815260200190815260200160002060009054906101000a900460ff1660028111156114ac576114ab6134c7565b5b146114b657600080fd5b60016008600084815260200190815260200160002060006101000a81548160ff0219169083151502179055506002808111156114f5576114f46134c7565b5b6007600084815260200190815260200160002060009054906101000a900460ff166002811115611528576115276134c7565b5b50508060600151816020015173ffffffffffffffffffffffffffffffffffffffff16837f605e46eb1441c0674ff6584b5ea1ba9a7f5d53198deaaf2a04338b577b38ab3b8460400151856080015142604051611586939291906138a3565b60405180910390a4600660008381526020019081526020016000206000808201600090556001820160006101000a81549073ffffffffffffffffffffffffffffffffffffffff02191690556002820160006115e19190612c9f565b60038201600090556004820160009055600582016000905550505050565b34600560003373ffffffffffffffffffffffffffffffffffffffff1673ffffffffffffffffffffffffffffffffffffffff1681526020019081526020016000205461164a91906138e1565b600560003373ffffffffffffffffffffffffffffffffffffffff1673ffffffffffffffffffffffffffffffffffffffff16815260200190815260200160002081905550343373ffffffffffffffffffffffffffffffffffffffff167f90890809c654f11d6e72a28fa60149770a0d11ec6c92319d6ceb2bb0a4ea1a15600560003373ffffffffffffffffffffffffffffffffffffffff1673ffffffffffffffffffffffffffffffffffffffff168152602001908152602001600020546040516117139190612e08565b60405180910390a3565b600460205281600052604060002081805160208101820180518482526020830160208501208183528095505050505050600091509150505481565b600c6020528060005260406000206000915054906101000a900473ffffffffffffffffffffffffffffffffffffffff1681565b60066020528060005260406000206000915090508060000154908060010160009054906101000a900473ffffffffffffffffffffffffffffffffffffffff16908060020180546117da906135c8565b80601f0160208091040260200160405190810160405280929190818152602001828054611806906135c8565b80156118535780601f1061182857610100808354040283529160200191611853565b820191906000526020600020905b81548152906001019060200180831161183657829003601f168201915b5050505050908060030154908060040154908060050154905086565b6118788361121f565b6118b7576040517f08c379a00000000000000000000000000000000000000000000000000000000081526004016118ae90613983565b60405180910390fd5b60016003546118c691906138e1565b6003819055506040518060c0016040528060035481526020013373ffffffffffffffffffffffffffffffffffffffff168152602001848152602001838152602001828152602001428152506006600060035481526020019081526020016000206000820151816000015560208201518160010160006101000a81548173ffffffffffffffffffffffffffffffffffffffff021916908373ffffffffffffffffffffffffffffffffffffffff1602179055506040820151816002019080519060200190611993929190612cdf565b50606082015181600301556080820151816004015560a08201518160050155905050600060076000600354815260200190815260200160002060006101000a81548160ff021916908360028111156119ee576119ed6134c7565b5b021790555081600460003373ffffffffffffffffffffffffffffffffffffffff1673ffffffffffffffffffffffffffffffffffffffff16815260200190815260200160002084604051611a4191906139df565b908152602001604051809103902081905550813373ffffffffffffffffffffffffffffffffffffffff166003547f9193cdda35362c821e3d4d240a5fcb0093ad192ac99028d18e5dff3414ee7871868542604051611aa1939291906138a3565b60405180910390a4505050565b60076020528060005260406000206000915054906101000a900460ff1681565b600082118015611ae057506003548211155b611ae957600080fd5b60006002811115611afd57611afc6134c7565b5b6007600084815260200190815260200160002060009054906101000a900460ff166002811115611b3057611b2f6134c7565b5b14611b3a57600080fd5b60003390506000600660008581526020019081526020016000206040518060c0016040529081600082015481526020016001820160009054906101000a900473ffffffffffffffffffffffffffffffffffffffff1673ffffffffffffffffffffffffffffffffffffffff1673ffffffffffffffffffffffffffffffffffffffff168152602001600282018054611bcf906135c8565b80601f0160208091040260200160405190810160405280929190818152602001828054611bfb906135c8565b8015611c485780601f10611c1d57610100808354040283529160200191611c48565b820191906000526020600020905b815481529060010190602001808311611c2b57829003601f168201915b50505050508152602001600382015481526020016004820154815260200160058201548152505090508060600151831115611cb8576040517f08c379a0000000000000000000000000000000000000000000000000000000008152600401611caf90613a42565b60405180910390fd5b6000816080015184611cca9190613a62565b905080600560008573ffffffffffffffffffffffffffffffffffffffff1673ffffffffffffffffffffffffffffffffffffffff168152602001908152602001600020541015611d4e576040517f08c379a0000000000000000000000000000000000000000000000000000000008152600401611d4590613b08565b60405180910390fd5b611d5a85848684612a02565b60016009600087815260200190815260200160002060006101000a81548160ff02191690831515021790555060016007600087815260200190815260200160002060006101000a81548160ff02191690836002811115611dbd57611dbc6134c7565b5b021790555082600c600087815260200190815260200160002060006101000a81548173ffffffffffffffffffffffffffffffffffffffff021916908373ffffffffffffffffffffffffffffffffffffffff16021790555080600d60008781526020019081526020016000208190555083600e60008781526020019081526020016000208190555083826020015173ffffffffffffffffffffffffffffffffffffffff16867f7717c4c0039d1e3b8c4e5fea24aea887c3b05f8f7f1e5fe6f041c5b4b58d94a1868660400151876080015142604051611e9e9493929190613666565b60405180910390a45050505050565b6000600560003373ffffffffffffffffffffffffffffffffffffffff1673ffffffffffffffffffffffffffffffffffffffff16815260200190815260200160002054905090565b600a6020528060005260406000206000915054906101000a900460ff1681565b7f000000000000000000000000000000000000000000000000000000000000000073ffffffffffffffffffffffffffffffffffffffff163373ffffffffffffffffffffffffffffffffffffffff1614611f99576040517fbf91ead800000000000000000000000000000000000000000000000000000000815260040160405180910390fd5b600f81908060018154018082558091505060019003906000526020600020016000909190919091509080519060200190611fd4929190612cdf565b5050565b6000600660008381526020019081526020016000206040518060c0016040529081600082015481526020016001820160009054906101000a900473ffffffffffffffffffffffffffffffffffffffff1673ffffffffffffffffffffffffffffffffffffffff1673ffffffffffffffffffffffffffffffffffffffff168152602001600282018054612068906135c8565b80601f0160208091040260200160405190810160405280929190818152602001828054612094906135c8565b80156120e15780601f106120b6576101008083540402835291602001916120e1565b820191906000526020600020905b8154815290600101906020018083116120c457829003601f168201915b50505050508152602001600382015481526020016004820154815260200160058201548152505090506000600c600084815260200190815260200160002060009054906101000a900473ffffffffffffffffffffffffffffffffffffffff1690503373ffffffffffffffffffffffffffffffffffffffff16826020015173ffffffffffffffffffffffffffffffffffffffff1614806121ab57503373ffffffffffffffffffffffffffffffffffffffff168173ffffffffffffffffffffffffffffffffffffffff16145b6121ea576040517f08c379a00000000000000000000000000000000000000000000000000000000081526004016121e190613646565b60405180910390fd5b600160028111156121fe576121fd6134c7565b5b6007600085815260200190815260200160002060009054906101000a900460ff166002811115612231576122306134c7565b5b1461223b57600080fd5b6000600d60008581526020019081526020016000205490506000600e600086815260200190815260200160002054905081600560008573ffffffffffffffffffffffffffffffffffffffff1673ffffffffffffffffffffffffffffffffffffffff168152602001908152602001600020546122b691906138e1565b600560008573ffffffffffffffffffffffffffffffffffffffff1673ffffffffffffffffffffffffffffffffffffffff1681526020019081526020016000208190555080600460003373ffffffffffffffffffffffffffffffffffffffff1673ffffffffffffffffffffffffffffffffffffffff168152602001908152602001600020856040015160405161234b91906139df565b90815260200160405180910390205461236491906138e1565b600460003373ffffffffffffffffffffffffffffffffffffffff1673ffffffffffffffffffffffffffffffffffffffff16815260200190815260200160002085604001516040516123b591906139df565b9081526020016040518091039020819055506002808111156123da576123d96134c7565b5b6007600087815260200190815260200160002060009054906101000a900460ff16600281111561240d5761240c6134c7565b5b505060016008600087815260200190815260200160002060006101000a81548160ff02191690831515021790555080846020015173ffffffffffffffffffffffffffffffffffffffff16867f3f4cd73070ce25691a6ac562de84d1efbdfbb91a5f68c38178f1182736856b098688604001518960800151426040516124959493929190613666565b60405180910390a4600660008681526020019081526020016000206000808201600090556001820160006101000a81549073ffffffffffffffffffffffffffffffffffffffff02191690556002820160006124f09190612c9f565b60038201600090556004820160009055600582016000905550505050505050565b7f000000000000000000000000000000000000000000000000000000000000000081565b600e6020528060005260406000206000915090505481565b600b6020528060005260406000206000915054906101000a900460ff1681565b60086020528060005260406000206000915054906101000a900460ff1681565b6001805461259a906135c8565b80601f01602080910402602001604051908101604052809291908181526020018280546125c6906135c8565b80156126135780601f106125e857610100808354040283529160200191612613565b820191906000526020600020905b8154815290600101906020018083116125f657829003601f168201915b505050505081565b6000600660008681526020019081526020016000206040518060c0016040529081600082015481526020016001820160009054906101000a900473ffffffffffffffffffffffffffffffffffffffff1673ffffffffffffffffffffffffffffffffffffffff1673ffffffffffffffffffffffffffffffffffffffff1681526020016002820180546126ab906135c8565b80601f01602080910402602001604051908101604052809291908181526020018280546126d7906135c8565b80156127245780601f106126f957610100808354040283529160200191612724565b820191906000526020600020905b81548152906001019060200180831161270757829003601f168201915b50505050508152602001600382015481526020016004820154815260200160058201548152505090506064827f000000000000000000000000000000000000000000000000000000000000000061277b9190613a62565b6127859190613773565b8261279091906136e1565b91508160056000836020015173ffffffffffffffffffffffffffffffffffffffff1673ffffffffffffffffffffffffffffffffffffffff168152602001908152602001600020546127e191906138e1565b60056000836020015173ffffffffffffffffffffffffffffffffffffffff1673ffffffffffffffffffffffffffffffffffffffff1681526020019081526020016000208190555082600460008673ffffffffffffffffffffffffffffffffffffffff1673ffffffffffffffffffffffffffffffffffffffff168152602001908152602001600020826040015160405161287a91906139df565b90815260200160405180910390205461289391906138e1565b600460008673ffffffffffffffffffffffffffffffffffffffff1673ffffffffffffffffffffffffffffffffffffffff16815260200190815260200160002082604001516040516128e491906139df565b9081526020016040518091039020819055506064827f00000000000000000000000000000000000000000000000000000000000000006129249190613a62565b61292e9190613773565b600560007f000000000000000000000000000000000000000000000000000000000000000073ffffffffffffffffffffffffffffffffffffffff1673ffffffffffffffffffffffffffffffffffffffff1681526020019081526020016000205461299891906138e1565b600560007f000000000000000000000000000000000000000000000000000000000000000073ffffffffffffffffffffffffffffffffffffffff1673ffffffffffffffffffffffffffffffffffffffff168152602001908152602001600020819055505050505050565b6000600660008681526020019081526020016000206040518060c0016040529081600082015481526020016001820160009054906101000a900473ffffffffffffffffffffffffffffffffffffffff1673ffffffffffffffffffffffffffffffffffffffff1673ffffffffffffffffffffffffffffffffffffffff168152602001600282018054612a92906135c8565b80601f0160208091040260200160405190810160405280929190818152602001828054612abe906135c8565b8015612b0b5780601f10612ae057610100808354040283529160200191612b0b565b820191906000526020600020905b815481529060010190602001808311612aee57829003601f168201915b505050505081526020016003820154815260200160048201548152602001600582015481525050905081600560008673ffffffffffffffffffffffffffffffffffffffff1673ffffffffffffffffffffffffffffffffffffffff16815260200190815260200160002054612b7f91906136e1565b600560008673ffffffffffffffffffffffffffffffffffffffff1673ffffffffffffffffffffffffffffffffffffffff168152602001908152602001600020819055508260046000836020015173ffffffffffffffffffffffffffffffffffffffff1673ffffffffffffffffffffffffffffffffffffffff1681526020019081526020016000208260400151604051612c1891906139df565b908152602001604051809103902054612c3191906136e1565b60046000836020015173ffffffffffffffffffffffffffffffffffffffff1673ffffffffffffffffffffffffffffffffffffffff1681526020019081526020016000208260400151604051612c8691906139df565b9081526020016040518091039020819055505050505050565b508054612cab906135c8565b6000825580601f10612cbd5750612cdc565b601f016020900490600052602060002090810190612cdb9190612d65565b5b50565b828054612ceb906135c8565b90600052602060002090601f016020900481019282612d0d5760008555612d54565b82601f10612d2657805160ff1916838001178555612d54565b82800160010185558215612d54579182015b82811115612d53578251825591602001919060010190612d38565b5b509050612d619190612d65565b5090565b5b80821115612d7e576000816000905550600101612d66565b5090565b6000604051905090565b600080fd5b600080fd5b6000819050919050565b612da981612d96565b8114612db457600080fd5b50565b600081359050612dc681612da0565b92915050565b600060208284031215612de257612de1612d8c565b5b6000612df084828501612db7565b91505092915050565b612e0281612d96565b82525050565b6000602082019050612e1d6000830184612df9565b92915050565b600081519050919050565b600082825260208201905092915050565b60005b83811015612e5d578082015181840152602081019050612e42565b83811115612e6c576000848401525b50505050565b6000601f19601f8301169050919050565b6000612e8e82612e23565b612e988185612e2e565b9350612ea8818560208601612e3f565b612eb181612e72565b840191505092915050565b60006020820190508181036000830152612ed68184612e83565b905092915050565b600073ffffffffffffffffffffffffffffffffffffffff82169050919050565b6000612f0982612ede565b9050919050565b612f1981612efe565b8114612f2457600080fd5b50565b600081359050612f3681612f10565b92915050565b600060208284031215612f5257612f51612d8c565b5b6000612f6084828501612f27565b91505092915050565b600081519050919050565b600082825260208201905092915050565b6000819050602082019050919050565b612f9e81612d96565b82525050565b6000612fb08383612f95565b60208301905092915050565b6000602082019050919050565b6000612fd482612f69565b612fde8185612f74565b9350612fe983612f85565b8060005b8381101561301a5781516130018882612fa4565b975061300c83612fbc565b925050600181019050612fed565b5085935050505092915050565b600081519050919050565b600082825260208201905092915050565b6000819050602082019050919050565b600082825260208201905092915050565b600061306f82612e23565b6130798185613053565b9350613089818560208601612e3f565b61309281612e72565b840191505092915050565b60006130a98383613064565b905092915050565b6000602082019050919050565b60006130c982613027565b6130d38185613032565b9350836020820285016130e585613043565b8060005b858110156131215784840389528151613102858261309d565b945061310d836130b1565b925060208a019950506001810190506130e9565b50829750879550505050505092915050565b6000608082019050818103600083015261314d8187612fc9565b9050818103602083015261316181866130be565b905081810360408301526131758185612fc9565b905081810360608301526131898184612fc9565b905095945050505050565b600060208201905081810360008301526131ae81846130be565b905092915050565b60008115159050919050565b6131cb816131b6565b82525050565b60006020820190506131e660008301846131c2565b92915050565b600080fd5b600080fd5b7f4e487b7100000000000000000000000000000000000000000000000000000000600052604160045260246000fd5b61322e82612e72565b810181811067ffffffffffffffff8211171561324d5761324c6131f6565b5b80604052505050565b6000613260612d82565b905061326c8282613225565b919050565b600067ffffffffffffffff82111561328c5761328b6131f6565b5b61329582612e72565b9050602081019050919050565b82818337600083830152505050565b60006132c46132bf84613271565b613256565b9050828152602081018484840111156132e0576132df6131f1565b5b6132eb8482856132a2565b509392505050565b600082601f830112613308576133076131ec565b5b81356133188482602086016132b1565b91505092915050565b60006020828403121561333757613336612d8c565b5b600082013567ffffffffffffffff81111561335557613354612d91565b5b613361848285016132f3565b91505092915050565b6000806040838503121561338157613380612d8c565b5b600061338f85828601612f27565b925050602083013567ffffffffffffffff8111156133b0576133af612d91565b5b6133bc858286016132f3565b9150509250929050565b6133cf81612efe565b82525050565b60006020820190506133ea60008301846133c6565b92915050565b600060c0820190506134056000830189612df9565b61341260208301886133c6565b81810360408301526134248187612e83565b90506134336060830186612df9565b6134406080830185612df9565b61344d60a0830184612df9565b979650505050505050565b60008060006060848603121561347157613470612d8c565b5b600084013567ffffffffffffffff81111561348f5761348e612d91565b5b61349b868287016132f3565b93505060206134ac86828701612db7565b92505060406134bd86828701612db7565b9150509250925092565b7f4e487b7100000000000000000000000000000000000000000000000000000000600052602160045260246000fd5b60038110613507576135066134c7565b5b50565b6000819050613518826134f6565b919050565b60006135288261350a565b9050919050565b6135388161351d565b82525050565b6000602082019050613553600083018461352f565b92915050565b600080604083850312156135705761356f612d8c565b5b600061357e85828601612db7565b925050602061358f85828601612db7565b9150509250929050565b7f4e487b7100000000000000000000000000000000000000000000000000000000600052602260045260246000fd5b600060028204905060018216806135e057607f821691505b602082108114156135f4576135f3613599565b5b50919050565b7f4e6f7420796f7572206f72646572000000000000000000000000000000000000600082015250565b6000613630600e83612e2e565b915061363b826135fa565b602082019050919050565b6000602082019050818103600083015261365f81613623565b9050919050565b600060808201905061367b60008301876133c6565b818103602083015261368d8186612e83565b905061369c6040830185612df9565b6136a96060830184612df9565b95945050505050565b7f4e487b7100000000000000000000000000000000000000000000000000000000600052601160045260246000fd5b60006136ec82612d96565b91506136f783612d96565b92508282101561370a576137096136b2565b5b828203905092915050565b7f4e487b7100000000000000000000000000000000000000000000000000000000600052603260045260246000fd5b7f4e487b7100000000000000000000000000000000000000000000000000000000600052601260045260246000fd5b600061377e82612d96565b915061378983612d96565b92508261379957613798613744565b5b828204905092915050565b60006137af82612d96565b91507fffffffffffffffffffffffffffffffffffffffffffffffffffffffffffffffff8214156137e2576137e16136b2565b5b600182019050919050565b600081905092915050565b60008190508160005260206000209050919050565b6000815461381a816135c8565b61382481866137ed565b9450600182166000811461383f576001811461385057613883565b60ff19831686528186019350613883565b613859856137f8565b60005b8381101561387b5781548189015260018201915060208101905061385c565b838801955050505b50505092915050565b6000613898828461380d565b915081905092915050565b600060608201905081810360008301526138bd8186612e83565b90506138cc6020830185612df9565b6138d96040830184612df9565b949350505050565b60006138ec82612d96565b91506138f783612d96565b9250827fffffffffffffffffffffffffffffffffffffffffffffffffffffffffffffffff0382111561392c5761392b6136b2565b5b828201905092915050565b7f4974656d2069732063757272656e746c79206e6f7420616c6c6f776564000000600082015250565b600061396d601d83612e2e565b915061397882613937565b602082019050919050565b6000602082019050818103600083015261399c81613960565b9050919050565b600081905092915050565b60006139b982612e23565b6139c381856139a3565b93506139d3818560208601612e3f565b80840191505092915050565b60006139eb82846139ae565b915081905092915050565b7f52656475636520746865207175616e7469747900000000000000000000000000600082015250565b6000613a2c601383612e2e565b9150613a37826139f6565b602082019050919050565b60006020820190508181036000830152613a5b81613a1f565b9050919050565b6000613a6d82612d96565b9150613a7883612d96565b9250817fffffffffffffffffffffffffffffffffffffffffffffffffffffffffffffffff0483118215151615613ab157613ab06136b2565b5b828202905092915050565b7f596f75206e656564206d6f726520657468000000000000000000000000000000600082015250565b6000613af2601183612e2e565b9150613afd82613abc565b602082019050919050565b60006020820190508181036000830152613b2181613ae5565b905091905056fea26469706673582212201b1c4e21bbb1fa1b9b9a8135baed84beaaa3088618ad4fda8a13acb8e4e6bed764736f6c63430008080033",
  "devdoc": {
    "author": "Abolaji",
    "kind": "dev",
    "methods": {},
    "title": "A contract for buying and selling items",
    "version": 1
  },
  "userdoc": {
    "kind": "user",
    "methods": {},
    "version": 1
  },
  "storageLayout": {
    "storage": [
      {
        "astId": 115,
        "contract": "contracts/Marketplace.sol:Marketplace",
        "label": "_status",
        "offset": 0,
        "slot": "0",
        "type": "t_uint256"
      },
      {
        "astId": 189,
        "contract": "contracts/Marketplace.sol:Marketplace",
        "label": "item",
        "offset": 0,
        "slot": "1",
        "type": "t_string_storage"
      },
      {
        "astId": 191,
        "contract": "contracts/Marketplace.sol:Marketplace",
        "label": "user",
        "offset": 0,
        "slot": "2",
        "type": "t_address_payable"
      },
      {
        "astId": 193,
        "contract": "contracts/Marketplace.sol:Marketplace",
        "label": "orderCount",
        "offset": 0,
        "slot": "3",
        "type": "t_uint256"
      },
      {
        "astId": 212,
        "contract": "contracts/Marketplace.sol:Marketplace",
        "label": "goods",
        "offset": 0,
        "slot": "4",
        "type": "t_mapping(t_address,t_mapping(t_string_memory_ptr,t_uint256))"
      },
      {
        "astId": 216,
        "contract": "contracts/Marketplace.sol:Marketplace",
        "label": "getBal",
        "offset": 0,
        "slot": "5",
        "type": "t_mapping(t_address,t_uint256)"
      },
      {
        "astId": 221,
        "contract": "contracts/Marketplace.sol:Marketplace",
        "label": "orders",
        "offset": 0,
        "slot": "6",
        "type": "t_mapping(t_uint256,t_struct(_order)206_storage)"
      },
      {
        "astId": 226,
        "contract": "contracts/Marketplace.sol:Marketplace",
        "label": "orderStatus",
        "offset": 0,
        "slot": "7",
        "type": "t_mapping(t_uint256,t_enum(ORDER_STATE)353)"
      },
      {
        "astId": 230,
        "contract": "contracts/Marketplace.sol:Marketplace",
        "label": "orderCancelled",
        "offset": 0,
        "slot": "8",
        "type": "t_mapping(t_uint256,t_bool)"
      },
      {
        "astId": 234,
        "contract": "contracts/Marketplace.sol:Marketplace",
        "label": "orderFilled",
        "offset": 0,
        "slot": "9",
        "type": "t_mapping(t_uint256,t_bool)"
      },
      {
        "astId": 238,
        "contract": "contracts/Marketplace.sol:Marketplace",
        "label": "orderCreated",
        "offset": 0,
        "slot": "10",
        "type": "t_mapping(t_uint256,t_bool)"
      },
      {
        "astId": 242,
        "contract": "contracts/Marketplace.sol:Marketplace",
        "label": "orderDelivered",
        "offset": 0,
        "slot": "11",
        "type": "t_mapping(t_uint256,t_bool)"
      },
      {
        "astId": 246,
        "contract": "contracts/Marketplace.sol:Marketplace",
        "label": "Buyers",
        "offset": 0,
        "slot": "12",
        "type": "t_mapping(t_uint256,t_address)"
      },
      {
        "astId": 250,
        "contract": "contracts/Marketplace.sol:Marketplace",
        "label": "filledAmount",
        "offset": 0,
        "slot": "13",
        "type": "t_mapping(t_uint256,t_uint256)"
      },
      {
        "astId": 254,
        "contract": "contracts/Marketplace.sol:Marketplace",
        "label": "filledQuantity",
        "offset": 0,
        "slot": "14",
        "type": "t_mapping(t_uint256,t_uint256)"
      },
      {
        "astId": 257,
        "contract": "contracts/Marketplace.sol:Marketplace",
        "label": "allowedItems",
        "offset": 0,
        "slot": "15",
        "type": "t_array(t_string_storage)dyn_storage"
      }
    ],
    "types": {
      "t_address": {
        "encoding": "inplace",
        "label": "address",
        "numberOfBytes": "20"
      },
      "t_address_payable": {
        "encoding": "inplace",
        "label": "address payable",
        "numberOfBytes": "20"
      },
      "t_array(t_string_storage)dyn_storage": {
        "base": "t_string_storage",
        "encoding": "dynamic_array",
        "label": "string[]",
        "numberOfBytes": "32"
      },
      "t_bool": {
        "encoding": "inplace",
        "label": "bool",
        "numberOfBytes": "1"
      },
      "t_enum(ORDER_STATE)353": {
        "encoding": "inplace",
        "label": "enum Marketplace.ORDER_STATE",
        "numberOfBytes": "1"
      },
      "t_mapping(t_address,t_mapping(t_string_memory_ptr,t_uint256))": {
        "encoding": "mapping",
        "key": "t_address",
        "label": "mapping(address => mapping(string => uint256))",
        "numberOfBytes": "32",
        "value": "t_mapping(t_string_memory_ptr,t_uint256)"
      },
      "t_mapping(t_address,t_uint256)": {
        "encoding": "mapping",
        "key": "t_address",
        "label": "mapping(address => uint256)",
        "numberOfBytes": "32",
        "value": "t_uint256"
      },
      "t_mapping(t_string_memory_ptr,t_uint256)": {
        "encoding": "mapping",
        "key": "t_string_memory_ptr",
        "label": "mapping(string => uint256)",
        "numberOfBytes": "32",
        "value": "t_uint256"
      },
      "t_mapping(t_uint256,t_address)": {
        "encoding": "mapping",
        "key": "t_uint256",
        "label": "mapping(uint256 => address)",
        "numberOfBytes": "32",
        "value": "t_address"
      },
      "t_mapping(t_uint256,t_bool)": {
        "encoding": "mapping",
        "key": "t_uint256",
        "label": "mapping(uint256 => bool)",
        "numberOfBytes": "32",
        "value": "t_bool"
      },
      "t_mapping(t_uint256,t_enum(ORDER_STATE)353)": {
        "encoding": "mapping",
        "key": "t_uint256",
        "label": "mapping(uint256 => enum Marketplace.ORDER_STATE)",
        "numberOfBytes": "32",
        "value": "t_enum(ORDER_STATE)353"
      },
      "t_mapping(t_uint256,t_struct(_order)206_storage)": {
        "encoding": "mapping",
        "key": "t_uint256",
        "label": "mapping(uint256 => struct Marketplace._order)",
        "numberOfBytes": "32",
        "value": "t_struct(_order)206_storage"
      },
      "t_mapping(t_uint256,t_uint256)": {
        "encoding": "mapping",
        "key": "t_uint256",
        "label": "mapping(uint256 => uint256)",
        "numberOfBytes": "32",
        "value": "t_uint256"
      },
      "t_string_memory_ptr": {
        "encoding": "bytes",
        "label": "string",
        "numberOfBytes": "32"
      },
      "t_string_storage": {
        "encoding": "bytes",
        "label": "string",
        "numberOfBytes": "32"
      },
      "t_struct(_order)206_storage": {
        "encoding": "inplace",
        "label": "struct Marketplace._order",
        "members": [
          {
            "astId": 195,
            "contract": "contracts/Marketplace.sol:Marketplace",
            "label": "id",
            "offset": 0,
            "slot": "0",
            "type": "t_uint256"
          },
          {
            "astId": 197,
            "contract": "contracts/Marketplace.sol:Marketplace",
            "label": "seller",
            "offset": 0,
            "slot": "1",
            "type": "t_address"
          },
          {
            "astId": 199,
            "contract": "contracts/Marketplace.sol:Marketplace",
            "label": "item",
            "offset": 0,
            "slot": "2",
            "type": "t_string_storage"
          },
          {
            "astId": 201,
            "contract": "contracts/Marketplace.sol:Marketplace",
            "label": "qtty_to_sell",
            "offset": 0,
            "slot": "3",
            "type": "t_uint256"
          },
          {
            "astId": 203,
            "contract": "contracts/Marketplace.sol:Marketplace",
            "label": "price",
            "offset": 0,
            "slot": "4",
            "type": "t_uint256"
          },
          {
            "astId": 205,
            "contract": "contracts/Marketplace.sol:Marketplace",
            "label": "timestamp",
            "offset": 0,
            "slot": "5",
            "type": "t_uint256"
          }
        ],
        "numberOfBytes": "192"
      },
      "t_uint256": {
        "encoding": "inplace",
        "label": "uint256",
        "numberOfBytes": "32"
      }
    }
  }
}